:020000040800F2
:10000000C0180020DD010008E5360008B52A000808
:100010004535000883080008B34A000800000000C6
:100020000000000000000000000000004501000882
:100030009909000800000000890100083D3F000800
:10004000F7010008F7010008F7010008F7010008B0
:10005000F7010008F7010008F7010008F7010008A0
:10006000F7010008F7010008F7010008F701000890
:10007000C9080008D5080008E1080008ED080008D4
:10008000F908000805090008F7010008F701000851
:10009000F7010008F7010008F7010008F701000860
:1000A000F7010008F7010008F7010008C140000847
:1000B000CD400008D9400008E5400008F7010008DD
:1000C000F7010008F7010008F7010008F701000830
:1000D000F70100084D490008654900087D490008FE
:1000E000F7010008F7010008F7010008F701000810
:1000F000F7010008F701000809410008F7010008AE
:10010000F7010008F7010008F1400008F7010008B6
:10011000F7010008F7010008FD400008F70100089A
:10012000F7010008F7010008F7010008F7010008CF
:10013000DFF80CD000F086FB0048004705520008AD
:10014000C0180020224B19680868B0E8F00F80F34F
:100150000988BFF36F8F4FF0000080F311884EF0D5
:100160000D0E70470000000006480068006880F32C
:10017000088862B661B6BFF34F8FBFF36F8F00DFA1
:1001800000BF00BF08ED00E0EFF30980BFF36F8F01
:100190000F4B1A6820E9F00F106008B54FF05000BF
:1001A00080F31188BFF34F8FBFF36F8F05F050FCC2
:1001B0004FF0000080F31188BDE808401968086816
:1001C000B0E8F00F80F30988BFF36F8F704700BF6E
:1001D0004C000020EFF30580704700000648804780
:1001E00006480047FEE7FEE7FEE7FEE7FEE7FEE71C
:1001F000FEE7FEE7FEE7FEE7794000083101000870
:10020000202A04DB203A21FA02F00021704721FA6B
:1002100002F3D040C2F120029140084319467047D2
:1002200040EA01039B0703D009E008C9121F08C078
:10023000042AFAD203E011F8013B00F8013B521EF8
:10024000F9D27047D2B201E000F8012B491EFBD26F
:1002500070470022F6E710B513460A4604461946D1
:10026000FFF7F0FF204610BD80EA010210B502F052
:100270000043400022D04A001FD0010E01EB126162
:10028000C0F35600C2F3560240F4000042F40002EC
:10029000A0FB022000047F39140400D0401C50EA67
:1002A000124001D44000491EC2B20C0604EBD0102B
:1002B000401C4008802A02D003E0002010BD20F03E
:1002C0000100002900DA0020184310BD2DE9FE4F7F
:1002D000804681EA0300C00F0C46009021F00041E7
:1002E00023F00045B8EB0200A94105D24046214663
:1002F00090461C460B46024623F00040104347D070
:10030000270DC7F30A00C3F30A510290401A019067
:1003100040286BDAC3F3130040F4801B0098924628
:1003200020B10023D2EB030A63EB0B0B0198594673
:10033000C0F14002504600F0CFF906460D46504647
:100340005946019A00F0D7F910EB080061410024EA
:1003500087EA115284EAE7731A4340D0009A62B3E5
:10036000019A012A4FEA075215DC001B61EB0201DA
:100370004FF0004202EA0752CDE90042001C41F56D
:10038000801132462B4600F00EFA03B0BDE8F08F24
:1003900040462146F9E7001B61EB0201001C41F5D4
:1003A000801300185B412018A2F5001747EB0301EA
:1003B00040EAD570B6196D4111E06D084FEA360676
:1003C00045EAC0754FEA0752001B61EB0201001CB1
:1003D00041F5801149084FEA300000195141324679
:1003E0002B4603B0BDE8F04F00F0CEB900980122D3
:1003F00040000023D0EB020263EBE073009821463B
:100400004FEAE074B8EB000061EB0401E9E783F028
:1004100000435BE781F0004158E72DE9FE4F81EA98
:10042000030404F0004421F0004100944FF0000B5D
:1004300023F0004350EA01045ED052EA03045BD08B
:10044000C3F30A54C1F30A552C44A4F2F3340194C3
:10045000A0FB0254C1F3130141F48011C3F3130351
:1004600043F4801301FB024400FB034E840A970A05
:1004700044EA815447EA8357A4FB076802958D0A32
:1004800005FB07854FEA932C04FB0C542705029DBE
:100490004FEA065847EA1637B5EB08056EEB070C2E
:1004A000870E920E47EA811742EA8312A7FB0201E8
:1004B000B6EB0B0164EB00042B0D43EA0C335E1822
:1004C00044EB1C50DA465146E7FB0201C5F3130426
:1004D0004FEA0B3343EA14534FEA0432019C43EAD8
:1004E0000603A4F10C040294009CCDE900B400F0D2
:1004F0005AF903B0BDE8F08F00200146F9E72DE975
:10050000F04D81EA030404F0004B21F0004514464D
:100510004FF0000A23F0004150EA050220D054EACF
:1005200001021DD0C5F30A570246C5F31303C1F3F8
:100530001300C1F30A5640F4801543F48013A7EB6F
:100540000608101BD64608F2FD3873EB050002D3EF
:1005500008F1010801E092185B41B8F1000F03DADD
:1005600000200146BDE8F08D00204FF480110646C2
:1005700084460EE0171B73EB050705D3121B63EBD4
:10058000050306434CEA010C49084FEA3000921873
:100590005B4150EA0107EDD152EA030012D082EA32
:1005A000040083EA0501084305D0101BAB4106D2C5
:1005B0000122002306E000224FF0004302E06FF02A
:1005C000010253101AEB06004CEB085110EB0A0025
:1005D00041EB0B01BDE8F04D00F0D6B870B521F04D
:1005E000004303430CD0C1F30A550024D5EB0405A6
:1005F00064EB0403D617AD1AB34102DB00200146B9
:1006000070BD201841EB025170BD962300221146A7
:1006100000F08CB80EB5C10F80EAE0700844CA073C
:10062000002140F233438DE80E000A460B4600F0ED
:10063000BAF803B000BD00F0004220F00040C10D48
:10064000C0F3160040F400007F2901DA0020704753
:10065000962903DCC1F19601C84001E09639884033
:10066000002AF4D04042704770B5C1F30A5201F03D
:1006700000450024C1F3130140F2FF3341F480111F
:100680009A4201DA002070BD40F233439A42A2F24E
:10069000334203DC5242FFF7B3FD00E090402C43AD
:1006A000F1D0404270BD000030B5041E71F100046D
:1006B00004DB4FF00044404264EB0101141E73F16F
:1006C000000405DB1C464FF00043524263EB040379
:1006D0008B4208BF824230BD202A04DB203A00FA58
:1006E00002F1002070479140C2F1200320FA03F389
:1006F000194390407047202A06DBCB17203A41FA75
:1007000002F043EAE07306E041FA02F3D040C2F19E
:10071000200291400843194670470029A8BF70473E
:10072000401C490008BF20F00100704710B4B0FA27
:1007300080FC00FA0CF050EA010404BF10BC7047C2
:1007400049B1CCF1200421FA04F411FA0CF118BFDC
:10075000012121430843A3EB0C01CB1D4FEA0061AB
:100760004FEA102042BF002010BC704700EBC3507E
:1007700010440029A4BF10BC7047401C490008BFAA
:1007800020F0010010BC704710B5141E73F1000476
:1007900008DA401C41F1000192185B411A4301D173
:1007A00020F0010010BD2DE9F04D92469B4611B19D
:1007B000B1FA81F202E0B0FA80F220329046FFF7FF
:1007C0008BFF04460F4640EA0A0041EA0B015346FC
:1007D0005A46084313D0114653EA010019D0C8F114
:1007E00040025046FFF70CFD05460E46504659465E
:1007F0004246FFF771FF084305D0012004E0204680
:100800003946BDE8F08D0020054346EAE0762C43EA
:1008100037430A986305E40AA0EB08000022FD0AAA
:1008200044EA47540A3002D500200146E9E70105B1
:1008300010196941DDE9084500196941BDE8F04D2D
:10084000A2E70000064C074D06E0E06840F0010317
:1008500094E8070098471034AC42F6D3FFF76CFCDD
:1008600038650008586500080EB540F23341029122
:100870000021CDE900110A460B46FFF794FF03B0B3
:1008800000BDFEE730B504460D4643F6A320002325
:1008900003E0E15C00F004F85B1CAB42F9D330BD2F
:1008A00080EA0102D1B2034A52F8211081EA1020F5
:1008B00070470000505F000800B5FFF7E3FF08B184
:1008C000002000BD012000BD014800F0B9BA0000C1
:1008D0004C070020014800F0B3BA000008070020D0
:1008E000014800F0ADBA00003C060020014800F0CD
:1008F000A7BA0000F8050020014800F0A1BA0000E6
:1009000080060020014800F09BBA0000C4060020C9
:1009100030B590F840500124AC40C56B6C60046861
:1009200063604368102B04D0036899600068C2605C
:1009300030BD03689A600068C16030BDB0F8011036
:10094000C378021D012B13D0032B10D0052B0ED121
:100950000E4B1B78012B17D00D4811780170517880
:100960004170518841809188818001218171704757
:10097000084811880180D2F80210C0F80210D2F89D
:100980000610C0F80610704700F0C8B80F0000202D
:100990001C0000206803002070470000642004F061
:1009A000A7FC0024224E234F234D00F0C9F8D8B3F2
:1009B00007281AD2DFE800F0190406080C10150009
:1009C000012412E0002410E001242E606F600CE08E
:1009D00001242F606E6008E00124184868602860D8
:1009E00003E001241648686028602046FFF70DFEEA
:1009F0008046A9682868FFF737FC4146FFF734FCBA
:100A0000FFF719FE01460F4802F0F8FDD5E9010194
:100A1000FFF72AFC4146FFF727FCFFF70CFE0146D3
:100A20000848383002F0EAFD322004F061FCBCE7EF
:100A3000000020C200002042000000200000A0C2F0
:100A40000000A042580200202DE9F0412B4ED6E9CB
:100A50000180A8EB0000FFF7DDFDD6E90423FFF7D6
:100A60004EFD04460D46C6E90601D6E90F70381A58
:100A7000FFF7D0FDD6E91223FFF741FDC6E91401C7
:100A8000C6F80880376422462B46FFF71FFC4FF05C
:100A9000FF32FFF7A3FD04460D4600F059F8A6F11A
:100AA0001808C8E90401164A164BFFF7B6FC0022E5
:100AB000154BFFF724FD06460F463046394604F035
:100AC00053FB22462B46FFF7A8FCD8E90023FFF78B
:100AD000FDFBC8E900013046394604F049FE2246D4
:100AE0002B46FFF79AFCD8E90223FFF7EFFBC8E992
:100AF00002014046BDE8F04103F0EEBC5802002080
:100B0000182D4454FB21094000806640FFF79CFFEC
:100B1000322004F0EDFBF9E77047000010B50C46F9
:100B2000014622460448FFF77BFB2246BDE8104001
:100B30000149024801F076BFB0010020B80500204D
:100B40000249087800220A70704700000C0000205B
:100B50000149D1E910017047F801002070B54379CF
:100B6000012B20D0012646710223037103681D6802
:100B700002F0100240F6FE749440A543D1E9004112
:100B80000C4394402C431C6003681C68C0219140B6
:100B90008C431C60026813688B431360067100214C
:100BA0004171002070BD022070BD70B50446002C5C
:100BB00003D02079002510B105E0012070BD6571DA
:100BC000204600F007F802202071256101202071E5
:100BD000002070BD00B585B0002101910291039104
:100BE000049100680E49884218D10E48C16941F04D
:100BF0000051C161C16901F000510091816941F06A
:100C000004018161806900F00400009030200190AF
:100C10000320029001A9044800F0EEFA05B000BDDF
:100C200000740040001002400008014018B504683C
:100C3000009400680029104405D0143000900098FA
:100C40000360002018BD08300090F8E770B54279C5
:100C5000012A1DD001263446467102220271036822
:100C60001D6801F01002944025431D6091B1016898
:100C70000B6803F470143C2393409C4203D14A68F0
:100C800042F002024A60067100214171002070BDED
:100C9000022070BD01680A68C2F383020F2AF2D1F4
:100CA0004A6842F001024A60EDE710B590F8211061
:100CB0000022022905D00421816380F82020012030
:100CC00010BD01680B6823F00E030B6001680B6810
:100CD00023F001030B6090F84030C46B012101FA4E
:100CE00003F3636080F8211080F82020104610BDC7
:100CF0002DE9F05F002590F82110022903D004218E
:100D00008163012595E001680A6822F00E020A60FD
:100D100001680A6822F001020A60474E464FB21588
:100D2000DFF814C1DFF81081DFF80C91DFF808A1BB
:100D3000DFF804B10168783F13011402ACF1640CD0
:100D4000A8F15008A9F13C09AAF1280AABF1140B4B
:100D50004FF4801EB1422FD9B94201D1012227E0C0
:100D6000614501D1102223E0414521D0494501D1FF
:100D70001A461DE0514501D1224619E0594501D1DD
:100D8000724615E02D4EB14201D1012210E02B4EEA
:100D90001436B14201D110220AE0284E2836B14261
:100DA00006D0264A3C32914201D11A4600E0224642
:100DB0002249091F0A6033E0B94201D101222CE027
:100DC000614501D1102228E0414526D0494501D195
:100DD0001A4622E0514501D122461EE0594501D173
:100DE00072461AE0B14202D14FF0807215E0134E04
:100DF000B14201D1012210E0104E1436B14201D1AE
:100E000010220AE00D4E2836B14206D00B4A3C3281
:100E1000914201D11A4600E02246074980394A60D2
:100E2000012180F82110002180F82010416B01B1D0
:100E300088472846BDE8F09F800002400804024031
:100E40002DE9F05FC16B0A6801680B68046C4FF014
:100E5000040E0EFA04FE9A4D9A4E9B4FDFF86CC2B8
:100E6000DFF86C82DFF86C92DFF86CA2DFF86CB20E
:100E70001EEA020F7BD05FEA437E78D50A689206AD
:100E800003D40A6822F004020A60DFF848E24FF453
:100E9000806201680EF1140E1301140271452DD900
:100EA000A94201D1042225E0B14201D1402221E032
:100EB000B9421FD0614501D11A461BE0414501D11D
:100EC000224617E0494502D14FF4800212E0514515
:100ED00001D104220EE0594501D140220AE07F4DA4
:100EE0001435A94206D07D4A2832914201D11A46D2
:100EF00000E022467849091F0A6032E0A94201D188
:100F000004222BE0B14201D1402227E0B94225D092
:100F1000614501D11A4621E0414501D122461DE03B
:100F2000494502D14FF4800218E0714502D14FF0DB
:100F3000806213E0514501D104220FE0594501D1EF
:100F400040220BE0654D1435A94207D0634A283290
:100F5000914202D11A4601E009E022465849083977
:100F60004A60C16A00296FD0BDE8F05F08474FF0C2
:100F7000020E0EFA04FE1EEA020F74D05FEA837EB0
:100F80007FD50A68920606D40A6822F00A020A602F
:100F9000012180F82110DFF83CE14FF40072016874
:100FA0000EF1140E1301140271452DD9A94201D17D
:100FB000022225E0B14201D1202221E0B9421FD016
:100FC000614501D11A461BE0414501D1224617E097
:100FD000494502D14FF4001212E0514501D10222DD
:100FE0000EE0594501D120220AE03C4D1435A942BA
:100FF00006D03A4A2832914201D11A4600E02246F0
:101000003549091F0A6033E0A94201D102222CE0D0
:10101000B14201D1202228E0B94226D0614501D158
:101020001A4622E0414501D122461EE0494502D13F
:101030004FF4001219E0714502D14FF0007214E034
:10104000514502D1022210E038E0594501D1202259
:101050000BE0224D1435A94207D0204A2832914294
:1010600002D11A4601E00CE02246154908394A60CF
:10107000002180F82010816A00291FD0BDE8F05FB0
:1010800008470825A540154218D01A0716D50A6842
:1010900022F00E020A6090F84020C36B012101FA91
:1010A00002F25A60816380F82110002180F820103C
:1010B000016B002902D0BDE8F05F0847BDE8F09F52
:1010C000080002401C000240300002404400024080
:1010D000580002406C000240080402401C04024018
:1010E00030B500280DD01B4B0168142299420AD25A
:1010F000194B0B44B3FBF2F292000264174AC2632D
:101100000BE0012030BD134B5B420B44B3FBF2F20A
:10111000920002640F4A083AC2630222001D42771D
:101120000A6843F6F0739A43D0E900342343D0E9C8
:1011300002452C43234304692343446923438469C0
:10114000234313430B60002141630122427701775F
:10115000002030BD08040240F8FFFDBF000002403F
:1011600070B50446002594F8200001280CD0012019
:1011700084F8200094F821600020012E06D084F825
:1011800020000225284670BD022070BD022684F88A
:101190002160A0632068066826F0010606602046EC
:1011A000FFF7B6FBE06A28B12068016841F00E0144
:1011B000016009E02068016821F0040101602068F5
:1011C000016841F00A0101602068016841F00101F5
:1011D0000160D7E770B5044600F026F90546601CAB
:1011E00002D004480078044400F01EF9401BA042DD
:1011F000FAD370BD3C0000202DE9F84F00240023F5
:10120000DFF8E0914FF00F0809F1040A0AF1040B2E
:101210000BF1040EDFE00127A7403A40BA4275D136
:10122000DFF8C4C14D68A5EB0C0665452BD00DDC7D
:10123000032D34D005DC35B3012D19D0022D2FD16B
:101240001BE0112D16D0122D2AD119E0B6F5881FFA
:1012500019D006DCB6F5803F15D0B6F5801F1FD13A
:1012600011E0B6F5001F0ED0B6F5041F18D10AE044
:10127000CB6815E0CB681B1D12E0CB6808330FE08C
:10128000CB680C330CE08B6823B1012B04D008230E
:10129000476105E0042303E00823076100E0002321
:1012A000FF2A01D8054601E000F1040502D84FEA03
:1012B000840603E0A4F108064FEA86062F6808FAC0
:1012C00006FC27EA0C0703FA06F647EA06072F6032
:1012D0004D68ED007ED5454DAE6946F00106AE6124
:1012E000AD6905F001050095414D24F0030677191D
:1012F000BE68A5072D0F08FA05FC26EA0C06DFF8E4
:10130000F4C0604503D14FF0000C25E062E0DFF847
:10131000E8C0604502D14FF0010C1DE0DFF8DCC0F1
:10132000604502D14FF0020C16E0DFF8D4C06045F2
:1013300002D14FF0030C0FE0DFF8C8C0604502D1C6
:101340004FF0040C08E0DFF8C0C0604502D14FF058
:10135000050C01E04FF0060C0CFA05FC4CEA060CFB
:10136000C7F808C04D68ED0305D5D9F800501543FE
:10137000C9F8005004E0D9F800509543C9F800506E
:101380004D68AD0305D5DAF800501543CAF8005092
:1013900004E0DAF800509543CAF800504D68ED02B9
:1013A00005D5DBF800501543CBF8005004E0DBF81E
:1013B00000509543CBF800504D68AD0205D5DEF8DE
:1013C00000501543CEF8005004E0DEF8005095437D
:1013D000CEF80050641C0A6832FA04F57FF41BAFA3
:1013E000BDE8F88F00040140000011100010024019
:1013F0000000014000080140000C014000100140C5
:101400000014014000180140001C0140806808429F
:1014100001D00120704700207047002A01D00161EF
:1014200070470904016170470148806870470000F7
:101430003C000020024881680278114481607047B6
:101440003C00002010B50748016841F01001016020
:10145000032000F095F8002000F006F800F03EF8B8
:10146000002010BD0020024000B587B001460022D8
:101470001E2000F065F81E2000F054F81348C169E2
:1014800041F00401C161C06900F00400009001A9AD
:1014900002A800F031F900F053F940000C49B0FB0C
:1014A000F1F1491E0C480B4A026040F2E732C2607B
:1014B000416000210161816000F081FB10B10120D9
:1014C00007B000BD044800F063FCF9E700100240DB
:1014D00040420F00000800409007002008B50F4868
:1014E000816941F001018161816901F0010100918F
:1014F000C16941F08051C161C06900F08050009025
:1015000000220F21901E00F01BF80549486820F0CA
:10151000E06040F00070486008BD0000001002402C
:1015200000000140002809DB00F01F02012191406A
:101530004009800000F1E020C0F800117047000071
:10154000F0B40D460D4B1B68C3F30223C3F107042F
:10155000042C00D90424191D072901D2002300E01E
:10156000DB1E012606FA04F1491E294099409E40DF
:10157000761E16403143F0BC03F0B0BA0CED00E02B
:1015800000F00701054A10684FF6FF03184040EAD3
:101590000120034908431060704700000CED00E093
:1015A0000000FA052DE9F04704460D46002C17D03F
:1015B000DFF83081D8F8000000F00700A84211D20F
:1015C000D8F8000020F007002843C8F80000D8F839
:1015D000000000F00700A84204D00120BDE8F08719
:1015E0000120FBE72068404E810712D5400703D554
:1015F000706840F4E06070602078000703D5706880
:1016000040F4605070607068A16820F0F0000843FA
:1016100070602078C0072CD06068012806D00228AE
:1016200009D0316889070BD40120D7E731688903D5
:1016300006D40120D2E73168890101D40120CDE729
:10164000716821F0030101437160FFF7EDFE074669
:1016500041F2883906E0FFF7E7FEC01B484501D993
:101660000320BBE77068616800F00C00B0EB810FED
:10167000F1D1D8F8000000F00700A8420ED9D8F840
:10168000000020F007002843C8F80000D8F8000048
:1016900000F00700A84201D001209FE72078400712
:1016A00005D57068E16820F4E06008437060207838
:1016B000000706D57068216920F4605040EAC10037
:1016C000706000F05DF87168084AC1F30311515C65
:1016D000C8400749086007480068FFF7C5FE0020BA
:1016E0007CE700000020024000100240B4630008C4
:1016F00048000020400000200F2202600B4A53687F
:1017000003F003034360536803F0F00383605368FE
:1017100003F4E063C360526802F46052D2080261CD
:101720000348006800F0070008607047001002409E
:101730000020024001480068704700004800002077
:1017400000B5FFF7F7FF04494968044AC1F30221D5
:10175000515CC84000BD000000100240C463000896
:1017600000B5FFF7E7FF04494968044AC1F3C22105
:10177000515CC84000BD000000100240C463000876
:1017800085B014A090E80E00C068CDE90223019155
:10179000049014A000680090134B5968134801F09E
:1017A0000C02042A10D0082A0ED101A8C1F38342EA
:1017B000805CC9030AD55968C1F340411DF8011086
:1017C0000A4A5043B0FBF1F005B07047084948435E
:1017D000FAE7000002030405060708090A0B0C0DCE
:1017E0000E0F1010010200000010024000127A00DB
:1017F00000093D002DE9F84F0446002C0ED020785A
:10180000D94DC0075ED06868C0F3810001280BD0B5
:101810006868C0F38100022803D00CE00120BDE815
:10182000F88F6868C00306D5286880034AD56068C9
:10183000A8BB0120F3E76068B0F5803F11D0A8B1E4
:10184000B0F5A02F1BD0286820F4803028602868CD
:1018500020F480202860606830B3FFF7E5FD06467D
:101860001EE0286840F480302860F4E7286820F4FF
:1018700080302860286820F480202860EBE7286802
:1018800040F480202860286840F480302860E2E737
:10189000FFF7CAFD801B642802D90320BFE711E0CF
:1018A00028688003F4D50DE0FFF7BEFD064606E08C
:1018B000FFF7BAFD801B642801D90320AFE7286831
:1018C0008003F5D42078DFF8A48280074FF0010A66
:1018D0004FF0000945D5686810F00C0F07D0686814
:1018E000C0F38100022812D16868C0030FD42868B1
:1018F000800704D52069012801D001208FE72868DE
:10190000616920F0F80040EAC100286029E0206900
:10191000B8B1C8F800A0FFF787FD064606E0FFF75C
:1019200083FD801B022801D9032078E728688007FF
:10193000F5D52868616920F0F80040EAC100286008
:101940000FE0C8F80090FFF76FFD064606E0FFF7CE
:101950006BFD801B022801D9032060E728688007FF
:10196000F5D42078000726D58148A16999B1C0F83F
:1019700000A0FFF759FD064606E0FFF755FD801B66
:10198000022801D903204AE7686A8007F5D50120BB
:1019900001F0DEFE0FE0C0F80090FFF745FD0646BF
:1019A00006E0FFF741FD801B022801D9032036E73E
:1019B000686A8007F5D42078400773D50026E86967
:1019C000C00008D4E86940F08050E861E86900F0A0
:1019D000805000900126DFF89CB1DBF80000C005C4
:1019E00014D4DBF8000040F48070CBF80000FFF75F
:1019F0001BFD074606E0FFF717FDC01B642801D951
:101A000003200CE7DBF80000C005F4D5E0680128EE
:101A100012D0B0B105281DD0286A20F0010028623C
:101A2000286A20F004002862E06841F2883B28B36D
:101A3000FFF7FAFC07461DE0286A40F00100286223
:101A4000F2E7286A20F001002862286A20F00400EA
:101A50002862E9E7286A40F004002862286A40F01A
:101A600001002862E0E7FFF7DFFCC01B584501D901
:101A70000320D4E6286A8007F5D50DE0FFF7D4FCF3
:101A8000074606E0FFF7D0FCC01B584501D90320EC
:101A9000C5E6286A8007F5D4012E03D1E86920F055
:101AA0008050E861E069A0B36968C1F3810102294F
:101AB00046D0022805D0C8F86090FFF7B5FC044670
:101AC0003AE0C8F86090FFF7AFFC064606E0FFF783
:101AD000ABFC801B022801D90320A0E62868800106
:101AE000F5D4206AB0F5803F05D16868A16820F47C
:101AF000003008436860D4E908010843696821F4AC
:101B0000741108436860C8F860A0FFF78DFC0446B4
:101B100007E026E0FFF788FC001B022801D903201C
:101B20007DE628688001F5D51BE0FFF77DFC001BF2
:101B3000022801D9032072E628688001F5D410E05C
:101B400001280CD06868226A00F48031914204D1E7
:101B5000616A00F47010884203D001205FE6012022
:101B60005DE600205BE600000010024000004242FB
:101B700080044242007000407047704770B590F892
:101B80003C20012A19D0012600F83C6F0222427045
:101B900050F83C2C5468936824F070050C682C4372
:101BA00023F0800349681943546050F83C2C91603D
:101BB000467000210170002070BD022070BD10B57C
:101BC0000446002C03D094F83D0010B107E001203A
:101BD00010BD002084F83C00204600F00DF80220E3
:101BE00084F83D00211D206802F094FA012084F859
:101BF0003D00002010BD000000B585B0002101911E
:101C00000291039104910068574A584990421FD1AC
:101C1000886940F400608861886900F40060009081
:101C2000886940F004008861886900F00400009031
:101C30008815019001A94E48FFF7DEFA0022042121
:101C40001B20FFF77DFC1B20FFF76CFC05B000BDDF
:101C5000B0F1804F13D0474A90423BD1C86940F061
:101C60000200C861C86900F002000090002205214E
:101C70001D20FFF765FC1D20FFF754FCE6E7C8694F
:101C800040F00100C861C86900F001000090886957
:101C900040F008008861886900F00800009040F674
:101CA000084001900220039001A93348FFF7A4FAED
:101CB0003249486820F4407040F0E06040F44070E1
:101CC0004860002205211C20FFF73AFC1C20FFF78A
:101CD00029FCBBE72A4A904210D1C86940F00800AD
:101CE000C861C86900F00800009000220521322078
:101CF000FFF726FC3220FFF715FCA7E7214A9042A8
:101D000010D1C86940F01000C861C86900F0100027
:101D10000090002205213620FFF712FC3620FFF745
:101D200001FC93E7184A904290D1886940F4005032
:101D30008861886900F400500090886940F01000C4
:101D40008861886900F0100000904020019001A98E
:101D50000E48FFF751FA002204212E20FFF7F0FB76
:101D60002E20FFF7DFFB71E7002C0140001002403E
:101D70000008014000040040000C01400000014048
:101D8000000C0040001000400034014000100140F1
:101D90000168CA6842F00102CA600068816801F007
:101DA0000701062903D0016841F00101016000200C
:101DB000704770B5044694F83C00012817D00125FF
:101DC00084F83C50022084F83D002068826822F0AC
:101DD000770222F47F4282600868502831D00DDCFF
:101DE00020284DD005DCB0B310284ED148E00220A9
:101DF00070BD302844D0402847D137E060282BD030
:101E0000702806D0B0F5805F3FD0B0F5005F3CD1C0
:101E10000BE0CB68D1E90121206802F0D0F92068FD
:101E2000816841F0770181602FE0CB68D1E9012121
:101E3000206802F0C4F92068816841F48041816023
:101E400023E0CA684968206802F09CFA50212068A3
:101E500002F0BFF919E013E0CA684968206802F08F
:101E6000D9FA6021206802F0B4F90EE0CA68496826
:101E7000206802F087FA4021206802F0AAF904E005
:101E800022680146104602F0A4F93C346570002037
:101E9000207070BD03490978012901D001F088BE86
:101EA00001F0F0BB0F00002070B504460D4694F819
:101EB0003C00012820D0012684F83C60022084F8F0
:101EC0003D00DAB1042A2AD0082A3AD0D5E9001216
:101ED000EB68206802F0E4FA2068C16921F44061EF
:101EE000C1612068C169AA6841EA0221C1613C342C
:101EF00066700020207070BD022070BDD5E9001210
:101F0000EB68206802F050FA2068816921F00C012A
:101F1000816120688169AA6811438161E7E7D5E999
:101F20000012EB68206802F087FA2068816921F4CA
:101F30004061816120688169AA6841EA022181616A
:101F4000D5E7D5E90012EB68206802F090FA206826
:101F5000C16921F00C01C1612068C169AA681143FF
:101F6000C161C4E710B50446002C03D094F83D00CD
:101F700010B107E0012010BD002084F83C0020468D
:101F800000F00CF8022084F83D00211D206802F0CA
:101F9000C1F8012084F83D00002010BD704710B545
:101FA00004460029226806D0042909D008290CD04B
:101FB0000C2913D10EE0D06840F00200D0600DE093
:101FC000D06840F00400D06008E0D06840F008001D
:101FD000D06003E0D06840F01000D060012220689B
:101FE00002F0E0F82068816801F00701062903D0BB
:101FF000016841F001010160002010BD70B5044688
:10200000206801694FF00005C943890716D4C168EB
:10201000C943890712D4E91E016101202077206895
:102020008069800703D02046FFF734FF05E0204693
:1020300000F0D6F8204600F05FF9257720680169A6
:10204000C943490718D4C168C943490714D46FF07C
:1020500004010161022020772068806910F4407F2C
:1020600003D02046FFF716FF05E0204600F0B8F841
:10207000204600F041F9257720680169C943090726
:1020800017D4C168C943090713D46FF0080101616F
:10209000042020772068C069800703D02046FFF71E
:1020A000F9FE05E0204600F09BF8204600F024F9F8
:1020B000257720680169C943C90618D4C168C94396
:1020C000C90614D46FF01001016108202077206840
:1020D000C06910F4407F03D02046FFF7DBFE05E027
:1020E000204600F07DF8204600F006F925772068AC
:1020F0000169C943C90708D1C168C943C90704D1E7
:10210000891E0161204600F097F920680169C943E2
:10211000090609D4C168C943090605D46FF08001D6
:1021200001612046FFF728FD20680169C94349067F
:1021300009D4C168C943490605D46FF04001016163
:10214000204600F09FF920680169C94389060BD435
:10215000C168C943890607D46FF020010161204698
:10216000BDE87040FFF709BD70BD000010B586B036
:1021700000210291039104910591154C0168154AC3
:1021800002231548A14210D1916941F004019161E7
:10219000916901F00401019140210291039305939B
:1021A00002A9FFF729F806B010BD0C4CA142FAD1E4
:1021B000916941F004019161916901F0040101917B
:1021C000012102910393059302A9FFF715F8EAE7AD
:1021D000000400400010024000080140000C0040D4
:1021E000704770B504460D4694F83C0001280DD0A8
:1021F000012684F83C60022084F83D0042B1042AA4
:102200001AD0082A2DD00C2A53D13EE0022070BDEE
:102210002946206801F0E6FF2068816941F0080145
:1022200081612068816921F00401816120688169F0
:102230002A69114381613CE02946206802F006F8D2
:102240002068816941F4006181612068816921F41D
:1022500080618161206881692A6941EA0221816186
:1022600027E02946206802F02BF82068C16941F078
:102270000801C1612068C16921F00401C1612068C1
:10228000C1692A691143C16113E02946206802F03F
:102290004FF82068C16941F40061C1612068C169DB
:1022A00021F48061C1612068C1692A6941EA022183
:1022B000C1613C3466700020207070BD10B50446CA
:1022C000002C03D094F83D0010B107E0012010BDB0
:1022D000002084F83C00204600F00CF8022084F82E
:1022E0003D00211D206801F015FF012084F83D000C
:1022F000002010BD704700000B498A68824206D159
:10230000027F0B699A4202D1084601F029BD0A6D8D
:10231000824207D1007F896D884203D1024848304C
:1023200001F01EBD70470000D802002010B5044621
:102330000029226806D0042909D008290CD00C29CC
:1023400013D10EE0D06840F00200D0600DE0D068FC
:1023500040F00400D06008E0D06840F00800D06091
:1023600003E0D06840F01000D0600122206801F046
:1023700019FF0B492068884202D00A49884203D1DC
:10238000416C41F4004141642068816801F007011B
:10239000062903D0016841F001010160002010BD51
:1023A000002C01400034014010B504460029226889
:1023B00006D0042909D008290CD00C2913D10EE02D
:1023C000D06820F00200D0600DE0D06820F004005A
:1023D000D06008E0D06820F00800D06003E0D0684A
:1023E00020F01000D0600022206801F0DBFE1048D1
:1023F00041F2111221689310814202D00D488142AE
:1024000009D1086A104206D1086A184203D1486C03
:1024100020F4004048642068016A114206D1016A34
:10242000194203D1016821F001010160002010BDB3
:10243000002C01400034014010B504460D492068CD
:10244000884201D1FEF7F6FF0B49206888420FD180
:102450000A48612101706221417063218170642109
:10246000C1700146BDE810400422054800F0DABA08
:1024700010BD0000000800400010004023000020B4
:1024800038050020704710B5044620684169C1F343
:10249000C01194F83920212A0BD151B1416921F0A2
:1024A00080014161206B08B1FEF7FFFB204602F07E
:1024B00006F920684169C1F3801194F83A20222A74
:1024C0000BD151B1416921F040014161606B08B10C
:1024D000FEF7EBFB204602F0D7F8002010BD704756
:1024E00070B5044622681068D168526900F00F0385
:1024F000002B08D1850606D58D0604D52046BDE8FB
:10250000704002F0E5B8002B5ED002F0010301F448
:1025100090752B4358D0C30705D0CB0503D5E36B8B
:1025200043F00103E363430705D5D30703D0E36B0F
:1025300043F00203E363830705D5D30703D0E36BBE
:1025400043F00403E363030705D5D20703D0E26B2E
:1025500042F00802E263E26B002A2AD0800604D52A
:10256000880602D5204602F0B3F820684069C0F31F
:102570008010E16B090700D400B3204602F084F814
:1025800020684169490615D5416921F04001416142
:10259000606B58B115494163606BFEF7A9FB0028D9
:1025A00007D0606B416BBDE8704008472046FFF7DD
:1025B00096FF70BD2046FFF792FF70BD2046FFF7E3
:1025C0008EFF0020E06370BD020606D50A0604D522
:1025D0002046BDE8704002F053B94006F3D54806E6
:1025E000F1D52046BDE8704002F05CB8B145000866
:1025F00070B50446002C04D094F83900002510B1C1
:1026000006E0012070BD84F83850204600F022F822
:10261000242084F839002068C16821F40051C16089
:10262000204602F0A3F82068016921F4904101617D
:102630002068416921F02A0141612068C16841F4A4
:102640000051C160E563202084F8390084F83A0025
:10265000002070BD2DE9F04385B0044600250195AA
:10266000029503950495DFF828C221688948022263
:102670000323894E80274FF400794FF010086145FD
:1026800051D1816941F480418161816901F48041C6
:102690000091816941F004018161806900F00400CA
:1026A0000090CDF804900292049301A93046FEF701
:1026B000A3FD301501900295039501A93046FEF760
:1026C0009BFD774E754830607560B560F760356189
:1026D0007561B561F5613046FEF702FD08B1FEF7A0
:1026E0001BFA666374626D486D4E14384436306070
:1026F000C6F80480B560F76035617561B561F56154
:102700003046FEF7EDFC08B1FEF706FA2663746268
:10271000002205212520FEF713FF2520FEF702FFEA
:1027200005B0BDE8F083DFF87CC1614551D1C169D6
:1027300041F40031C161C16901F400310091816946
:1027400041F004018161806900F0040000900420E0
:1027500001900292049301A93046FEF74DFD082036
:1027600001900295039501A93046FEF745FD4B48BF
:102770004B4E1430883630607560B560F760356157
:102780007561B561F5613046FEF7AAFC08B1FEF748
:10279000C3F9666374624148414E2830CC363060DC
:1027A000C6F80480B560F76035617561B561F561A3
:1027B0003046FEF795FC08B1FEF7AEF92663746269
:1027C000002205212620FEF7BBFE2620FEF7AAFEEA
:1027D000A6E7354EB142A3D1C16941F48021C16160
:1027E000C16901F480210091816941F0200181617A
:1027F000806900F020000090B015019002920493CF
:102800002A4E01A93046FEF7F7FCCDF80490029558
:10281000039501A93046FEF7EFFC2549486820F0F2
:10282000300040F0E06040F0300048601B48214E2E
:10283000283830607560B560F76035617561B561E5
:10284000F5613046FEF74CFC08B1FEF765F96663AA
:1028500074621248174E3C3844363060C6F8048023
:10286000B560F76035617561B561F5613046FEF7B9
:1028700037FC08B1FEF750F9266374620022052187
:102880002720FEF75DFE2720FEF74CFE48E70000FC
:10289000003801400010024000080140580002408A
:1028A000F8050020004400400048004000140140AA
:1028B000000001400807002037B582B004461346E7
:1028C00094F83A00202802D0022005B030BD039AC7
:1028D000A2B39BB394F83800012832D0012084F8C9
:1028E0003800A262A3850025E563222084F83A001F
:1028F000616B15488862616B1448C862616B14484B
:102900000863606B45632168606B091DFEF728FC56
:10291000206801684168019184F83850C16841F429
:102920008071C1602068416941F001014161206806
:10293000416941F0400141610020C6E7FFE7012005
:10294000C3E70220C1E700000B4600084746000825
:10295000C1450008704770472DE9F84304460D460D
:1029600091461E4694F83900202802D00220BDE886
:10297000F883B5B1B9F1000F13D094F838000128ED
:1029800011D0012084F838000027E763212084F863
:102990003900FEF749FD8046A4F82490A4F826905B
:1029A0002DE00120E3E70220E1E7E08C401EE08417
:1029B000A068B0F5805F09D0434600228021204600
:1029C000009601F090FFB0B10320D0E7434600220B
:1029D00080212046009601F086FF08B10320C6E75B
:1029E00028882168C0F308004860206908B16D1C80
:1029F00005E0AD1C03E0216815F8010B4860E08C90
:102A00000028D2D14346002240212046009601F002
:102A10006AFF08B10320AAE72020383460702770CD
:102A20000020A4E7F7B5044694F83900202801D027
:102A30000220FEBD019979B372B394F838000128E1
:102A40002DD0012084F838002162A284E284002580
:102A5000E563212084F83900236B12489862236BC8
:102A60001148D862236B11481863206B45632068B6
:102A70001346001D266B02463046FEF771FB2168A7
:102A80006FF04000086084F838502068416941F0D8
:102A9000800141610020FEBDFFE70120FBE702202D
:102AA000F9E70000514600087F460008C1450008CC
:102AB00070477047FEE70000032202490248FFF713
:102AC000B1BF000010000020780500202DE9F04182
:102AD000044621297ED1207855287BD1E07A5528DB
:102AE00078D1A07D552875D100210020225C1144A9
:102AF000C9B2401CC0B20A28F8D3A07A644D6FF066
:102B00000E0688423ED1607851283BD1A078E1780A
:102B100040EA012000B2FDF77DFD3246FDF75EFD83
:102B20000422FDF75BFD5B4FDFF86C813A464346BC
:102B3000FDF773FCC5E900012079617940EA0120C5
:102B400000B2FDF767FD3246FDF748FD0422FDF7B0
:102B500045FD3A464346FDF760FCC5E90201A07910
:102B6000E17940EA012000B2FDF754FD3246FDF75D
:102B700035FD0422FDF732FD3A464346FDF74DFC94
:102B8000C5E9040100210B20225C1144C9B2401C9C
:102B9000C0B21528F8D3607D884235D1207B5228F9
:102BA00032D1607BA17B40EA012000B2FDF732FD0B
:102BB0003246FDF713FD394F00223B46FDF72DFC51
:102BC000C5E90601E07B217C40EA012000B2FDF767
:102BD00021FD00E059E03246FDF700FD00223B46B2
:102BE000FDF71BFCC5E90801607CA17C40EA0120DF
:102BF00000B2FDF70FFD3246FDF7F0FC00223B4628
:102C0000FDF70BFCC5E90A0100211620225C1144E6
:102C1000C9B2401CC0B22028F8D394F820008842E2
:102C200033D1E07D532830D1207E617E40EA0120FF
:102C300000B2FDF7EFFC3246FDF7D0FC184F002242
:102C40003B46FDF7EAFBC5E90C01A07EE17E40EAC8
:102C5000012000B2FDF7DEFC3246FDF7BFFC00228A
:102C60003B46FDF7DAFBC5E90E01207F617F40EAB4
:102C7000012000B2FDF7CEFC3246FDF7AFFC00228A
:102C80003B46FDF7CAFBC5E91001BDE8F081000035
:102C9000F80100209A9999999999234000409F4002
:102CA0000080664010B54FF4FA60FEF793FAE82012
:102CB00001F03EFC322000F0E5F8022001F038FC83
:102CC000322000F0DFF89C2001F032FC322000F0CE
:102CD000D9F8E82001F02CFC322000F0D3F80220D3
:102CE00001F026FC322000F0CDF8952001F020FC08
:102CF000322000F0C7F8E82001F01AFC322000F082
:102D0000C1F8022001F014FC322000F0BBF898203A
:102D100001F00EFC322000F0B5F8E82001F008FCCC
:102D2000322000F0AFF8022001F002FC322000F067
:102D3000A9F8712001F0FCFB40F6C4142046FEF710
:102D400049FAE82001F0F4FB322000F09BF8022061
:102D500001F0EEFB322000F095F89C2001F0E8FB3A
:102D6000322000F08FF8E82001F0E2FB322000F082
:102D700089F8022001F0DCFB322000F083F8952076
:102D800001F0D6FB322000F07DF8E82001F0D0FB06
:102D9000322000F077F8022001F0CAFB322000F068
:102DA00071F8982001F0C4FB322000F06BF8E820A5
:102DB00001F0BEFB322000F065F8022001F0B8FB04
:102DC000322000F05FF87A2001F0B2FB2046BDE827
:102DD0001040FEF7FFB9000010B5094C002302EBCC
:102DE000420204EB4202022907D30844801E4178C4
:102DF000007841EA0020508000E05380137110BD3C
:102E0000C802002010B50C480A4901604FF4165161
:102E1000416000218160C16001610C2242618161D9
:102E2000C161FFF7E5FB002803D0BDE81040FDF7C6
:102E300073BE10BD004400407805002010B50C485A
:102E40000A4901604FF41651416000218160C16060
:102E500001610C2242618161C161FFF7C9FB002859
:102E600003D0BDE81040FDF757BE10BD004800403C
:102E7000B805002002494860012008807047000022
:102E80001400002070B5054602F008FD00214FF047
:102E9000E02674690B4840684543B369B2699A42B9
:102EA000FCD003D2A3EB0200014403E0A4EB020038
:102EB000184401441346A942F0D3BDE8704002F023
:102EC0000DBD0000140000201CB5002400940194E6
:102ED0000F490E4808600846FDF767FE08B1FDF788
:102EE0001BFE009402200190002269460848FDF76D
:102EF00035FE08B1FDF710FE102269460448FDF7C3
:102F00002DFE002801D0FDF707FE1CBD0074004017
:102F1000A403002008B51D48416941F00101416149
:102F2000406900F001000090002205210C20FEF70E
:102F300007FB0C20FEF7F6FA002205210D20FEF714
:102F4000FFFA0D20FEF7EEFA002205210E20FEF713
:102F5000F7FA0E20FEF7E6FA002205210F20FEF711
:102F6000EFFA0F20FEF7DEFA002205211020FEF70F
:102F7000E7FA1020FEF7D6FA002205211120FEF70D
:102F8000DFFABDE808401120FEF7CCBA001002407D
:102F900010B594B014221E490FA8FDF741F9002185
:102FA0000FA802F0B2F91B4C20611B4800780128E1
:102FB0000CD01422164950310AA8FDF731F900212E
:102FC0000AA802F0A2F9E06014B010BD1422104962
:102FD00014310AA8FDF724F900210AA802F095F996
:102FE000606014220A49283105A8FDF719F900216B
:102FF00005A802F08AF92060142205493C31684690
:10300000FDF70EF90021684602F07FF9A060DBE7CA
:1030100050630008280000200F0000202DE9F04F29
:1030200085B0002401940294039404943E4881697D
:1030300041F010018161816901F010010091816905
:1030400041F004018161816901F00401009181690D
:1030500041F040018161816901F040010091816985
:1030600041F008018161816901F0080100918169E5
:1030700041F020018161806900F020000090DFF8BC
:10308000AC904FF4CA75002229464846FEF7C5F9B0
:10309000DFF89CA04FF48057002239465046FEF7D7
:1030A000BCF9DFF890B04FF4C058002241465846B2
:1030B000FEF7B3F9019501260296039402250495C3
:1030C00001A94846FEF798F88020019002940394E5
:1030D000DFF8649001A94846FEF78EF84FF4FE40F1
:1030E00001900294039501A94846FEF785F80197DF
:1030F00002960394049501A95046FEF77DF8280333
:1031000001900294039501A95046FEF775F8CDF899
:10311000048002960394049501A95846FEF76CF8C2
:1031200005B0BDE8F08F0000001002400010014023
:10313000000C0140000801400018014010B58AB0A1
:103140000024069407940894099404940594009428
:103150000194029403941E481C49016040F2CF215F
:10316000416084604FF6FF71C16004614461846115
:10317000FEF725FD08B1FDF7CFFC4FF48050069017
:1031800006A91348FEF715FE08B1FDF7C5FC104867
:10319000FEF7E8FE08B1FDF7BFFC0494059404A90E
:1031A0000B48FEF7EBFC08B1FDF7B6FC00940120DC
:1031B000019002940394002269460548FEF774FECC
:1031C000002801D0FDF7A8FC0AB010BD002C01407A
:1031D000B803002010B58AB0002406940794089420
:1031E000099404940594009401940294039426484D
:1031F0004FF0804101604721416084604CF24F31C3
:10320000C16004618461FEF7DAFC08B1FDF784FC5B
:103210004FF48050069006A91B48FEF7CAFD08B17E
:10322000FDF77AFC1848FEF79DFE08B1FDF774FC27
:103230000494059404A91448FEF7A0FC08B1FDF716
:103240006BFC00940120019002940F200390042253
:1032500069460D48FEF728FE08B1FDF75DFC08221F
:1032600069460948FEF720FE08B1FDF755FC0394B6
:103270000C2269460448FEF717FE002801D0FDF72E
:103280004BFC0AB010BD0000F803002010B58EB052
:1032900000240A940B940C940D94089409941C2116
:1032A00001A8FCF7D6FF1E481C4901604721416078
:1032B0008460C721C16004618461FEF780FC08B1AD
:1032C000FDF72AFC4FF480500A900AA91448FEF733
:1032D00070FD08B1FDF720FC1148FEF7EFFF08B1C3
:1032E000FDF71AFC0894099408A90D48FEF746FC5E
:1032F00008B1FDF711FC6020019063200290039457
:103300000594002201A90648FEF76BFF08B1FDF7FE
:1033100003FC0348FEF72AFF0EB010BD0004004076
:103320003804002010B58EB000240A940B940C943D
:103330000D94089409941C2101A8FCF78AFF1E48EB
:103340001C490160472141608460C721C16004615C
:103350008461FEF734FC08B1FDF7DEFB4FF48050CA
:103360000A900AA91448FEF724FD08B1FDF7D4FB22
:103370001148FEF7A3FF08B1FDF7CEFB08940994AE
:1033800008A90D48FEF7FAFB08B1FDF7C5FB602060
:1033900001906320029003940594002201A906483D
:1033A000FEF71FFF08B1FDF7B7FB0348FEF7DEFE8F
:1033B0000EB010BD000C0040780400201CB50024A5
:1033C000009401940E480D49016041F61F4141608F
:1033D000846042F20F71C1608461FEF7F0FB08B1B6
:1033E000FDF79AFB0094019469460548FEF7C6FB79
:1033F000002801D0FDF790FB1CBD0000001000402C
:10340000B804002010B58AB00024069407940894EC
:1034100009940494059400940194029403941E4822
:103420001C49016040F2CF21416084604FF6FF717A
:10343000C160046144618461FEF7C1FB08B1FDF71E
:103440006BFB4FF48050069006A91348FEF7B1FCC1
:1034500008B1FDF761FB1048FEF784FD08B1FDF7E8
:103460005BFB0494059404A90B48FEF787FB08B1A5
:10347000FDF752FB00940120019002940394002276
:1034800069460548FEF710FD002801D0FDF744FB12
:103490000AB010BD00340140F804002010B50C48FB
:1034A0000A4901604FF4E131416000218160C1604F
:1034B00001610C2242618161C161FFF799F8002826
:1034C00003D0BDE81040FDF727BB10BD0038014018
:1034D0003805002010B50C480A4901604FF4E1316D
:1034E000416000218160C16001610C224261816103
:1034F000C161FFF77DF8002803D0BDE81040FDF75B
:103500000BBB10BD004400407805002010B50C48EE
:103510000A4901604FF4E131416000218160C160DE
:1035200001610C2242618161C161FFF761F80028ED
:1035300003D0BDE81040FDF7EFBA10BD00480040D1
:10354000B8050020FEE701210170818D806A00220C
:10355000FDF763BFFF210170818D806A0122FDF7B5
:103560005CBF000070B538211F48FCF772FE1E4892
:10357000382138300646FCF76CFE1B491B4C0C62A8
:10358000E01488841A4A8A628020888501230B709F
:1035900000200863184D1748C1E904058C65901494
:1035A000A1F85C000A660011A1F8640081F83830C7
:1035B000102088660F4A2846C1E91220084600F00C
:1035C0005CF8304600F059F80748FFF7BCFF30467A
:1035D000FFF7B9FF0021044800F010F83046BDE8BD
:1035E0007040002100F00AB8580200200008014095
:1035F00000100140D7D6D6D6D6D6D63F70B50546F0
:103600000C461948844201DC044604E040F6FF7091
:10361000844200DB0446686B00B10CB120B107E0C6
:10362000284600F02AF803E014B1284600F020F8FC
:10363000686B002805DB002C03DA2846FFF78AFFB9
:1036400006E0002804DC002C02DD2846FFF77BFFA3
:10365000002C00DC64422346296BBDE87040002248
:103660000248FDF7E3BA000001F0FFFFA4030020C9
:10367000818C006A0122FDF7D0BE818C006A002295
:10368000FDF7CBBE144B0168144A994210D1007F5C
:10369000012809D1104692F900104068012904D090
:1036A000491C01D1401E50607047401C506070475B
:1036B0000B4B9942FBD1007F0128F8D1074892F9C2
:1036C0003810C06B012904D0491CF0D1401ED063D2
:1036D0007047401CD0637047002C01405802002006
:1036E0000034014070477FB503460C46164606F18C
:1036F000080085B2A5202070A4F801509DF80C00A8
:10370000E07032461946201DFCF78AFD291F20462D
:10371000FDF7B8F8A11948607FBD2DE9F0410746D3
:10372000884616461D4632212846FCF792FD08F1D0
:1037300008010CB2322C03DD4FF0FF30BDE8F08100
:103740003346424629463846FFF7CDFF2046F5E787
:1037500008B507494FF4FA520968B1FBF2F1414349
:10376000009100BF0098411E0091FAD208BD0000F0
:103770004800002010B504462146E82000F0E4FE91
:103780003220FFF77FFB2146022000F0DDFE3220D1
:10379000FFF778FB2146B42000F0D6FE034904EB86
:1037A000440001EB40000122027110BDC80200205C
:1037B00000EB4001054800EB41000179012902D0EE
:1037C000B0F9020070474FF0FF307047C802002088
:1037D000FFF768FA00F016FA00F03AFBDFF80C92F7
:1037E000DFF80C824FF0000B4FF0010A0A2001F0C5
:1037F0007FFD804EB07978B386F806B00024305D46
:1038000010B304EB4405474618F8250003280DD1F2
:1038100006EB4400B0F90200002800DC4042FCF74F
:10382000F9FE0022744BFCF73FFF1CD906EB440065
:10383000E1B2B0F9020000F0BFFAC0B2022804D031
:1038400001280ED0022803D00DE0305D022804D0FC
:10385000305D012805D006E008E0022007F82500C9
:1038600001E007F825A0641C022CC8DB00244546B3
:1038700004EB440615F82600022802D0012813D0D4
:103880001BE004EBC40109EBC10090F83100A0B9C2
:10389000032005F82600E0B2FFF76CFFFDF7C4FD3A
:1038A00005EB8601886008E004EBC40109EBC10068
:1038B00090F8310008B905F826B0641C022CD7DB5B
:1038C00000273C46A84604EB440518F825000328C9
:1038D0002ED1E0B2FFF76CFF0646401C0FD008EB7C
:1038E000850704EBC40109EBC10087F801A0D0E90A
:1038F0000E211046FCF7B8FE7880BE8015E0FDF77B
:1039000093FD08EB8506B168C831884210D904EBF5
:10391000C40109EBC10186F801A0D1E90E01FCF751
:10392000A3FE70804FF0FF30B08008F825B001276B
:10393000641C022CC7DBF7B12D4D00241835464618
:1039400004EB440006EB8000417801291CD004EB15
:10395000C40109EBC10105F804A0D1E90E01FCF78F
:1039600083FE05EB44014880641C022CE8DB204800
:10397000183000F009FE0025204E2C46305D02284C
:103980000DD001280BD020E00221295505EB440180
:1039900042884A808288CA8080F801B0E4E704EB5C
:1039A000440218F8221081420FD0114F04EBC401D9
:1039B000183709EBC10107F804A0D1E90E01012570
:1039C000FCF752FE07EB4401488004EB440118F871
:1039D00021003055641C022CD0DB002D3FF406AFD3
:1039E0000348183000F0D0FD00E70000D8020020A6
:1039F000C00000201C00002000001E400D00002020
:103A00002DE9F84381460E46002700250024322187
:103A10002E48FCF71EFC002E13D0DFF8B0800DE01E
:103A200038467F1C19F80020BFB265B1012D15D0B2
:103A3000022D1CD0032D2CD000250024761EB6B2FA
:103A4000EED2BDE8F883A52A01D00024F6E720468F
:103A5000641CA4B208F800200125EFE7ADF80120AE
:103A60002046641CA4B208F800200225E6E7BDF851
:103A7000010040EA0220ADF801002146641CA4B216
:103A800008F80120322801D20325D7E700250024B9
:103A9000D4E7BDF80110A14206D9204604F1010483
:103AA000A4B208F8002003E002D24FF000052C4633
:103AB000A142C3D1002500240448FCF7FDFE0028E4
:103AC000BCD00248FCF73AFFB8E7000072030020C0
:103AD0001CB5314D6E46314F4FF480784FF400796C
:103AE0004FF4806A4FF4006B1DE015F814000128B4
:103AF00009D005EB44004078012804D1305D01284D
:103B000001D1601C0870641CE4B2082CEDD30020C5
:103B100005EB40014A7805F81020325C4A70401CE1
:103B2000C0B20828F4D300240A2001F0E1FB802170
:103B30003846FDF76BFC8DF8000041463846FDF72E
:103B400065FC8DF8010049463846FDF75FFC8DF8AD
:103B5000020051463846FDF759FC8DF803005946DE
:103B60003846FDF753FC8DF804004FF48051384679
:103B7000FDF74CFC8DF805004FF400513846FDF779
:103B800045FC8DF806004FF480413846FDF73EFCB9
:103B90008DF807000249A8E7B00000200018014096
:103BA0000C0000204FF47A74204601F0A1FBFBE7E3
:103BB00070B5134C0225616981420ED1017FE26923
:103BC00091420AD194F83000012805D1D4E90201CC
:103BD000FEF7EAFB84F8305070BDE16D8142FBD105
:103BE000007F616E8842F7D194F878000128F3D104
:103BF000D4E91401FEF7D8FB84F8785070BD0000BA
:103C0000D80200202DE9F04790212748FCF721FB3E
:103C1000254890214830FCF71CFB234C012684F8F2
:103C20003260224F27621020A0842148A0604FF00C
:103C30000008C4F80C8026611E4D65614FF00C0928
:103C4000C4F818904FF0080AC4F81CA01B481A4981
:103C5000C4E900104FF0AA301949FCF705FD2064B3
:103C600084F87A60A7660420A4F86C0015492165E1
:103C7000C4F85480A665E565C4F860A060660F4886
:103C80000D49C4E9121010481049FCF7EDFCC4F8C6
:103C9000880049462846FEF782F9D4E91701BDE8B5
:103CA000F047FEF77CB90000D80200200010014068
:103CB00038040020F8030020CDCCCCCCCCCCBC3FC9
:103CC000AAAA3AC078040020C7711CC7711C65C03D
:103CD0002DE9F0410746002F3DD0204801EBC101FE
:103CE00000EBC10696F83000022834D3306CFCF7A4
:103CF00091FC04460D463846FCF78CFCD6E90E23B1
:103D0000FCF7E4FAD6E90023FCF7F9FB22462B4640
:103D1000FCF77DFBFCF7A8FCF062B16A0124884245
:103D200007DB86F83240B18C0122306AFDF775FB63
:103D300007E0FF2086F83200B18C0022306AFDF7E0
:103D40006CFB96F83100002805D1D6E90201FEF798
:103D5000EDFA86F83140BDE8F0810000D80200207D
:103D600070B5044694F83000022823D394F9321039
:103D7000A06A4518A562206C2844FCF74BFCD4E9E6
:103D80000023FCF74AFBC4E90E01E06AA84211D106
:103D900094F8310000280DD0002084F83100D4E9D7
:103DA0000201FEF701FB94F83000022802D1032043
:103DB00084F8300070BD00002DE9F04106460F4642
:103DC000204807EBC70100EBC10494F8300003283A
:103DD00002D20020BDE8F081E6B13046FCF71AFCC3
:103DE000D4E90E2314461D46FCF770FAFCF73CFCA0
:103DF00000B210F1500F0FDA22462B460020124974
:103E0000FCF705FBFCF730FC00B23946FFF760FF1A
:103E10000120DFE70220DDE750280DDD22462B469A
:103E200000200A49FCF7F3FAFCF71EFC00B2394601
:103E3000FFF74EFF0120CDE739463046FFF748FF38
:103E40000220C7E7D8020020000054C00000544000
:103E50002DE9F041384E032086F8300096F87800BE
:103E600000280FD1FF2086F87A00B6F86C100022E7
:103E7000B06EFDF7D2FAD6E91401FEF757FA012029
:103E800086F87800012404EBC40006EBC00502E0CC
:103E90000A2001F02DFA95F830000228F8D1641CB0
:103EA000022CF0DB322001F023FA376CB06A384480
:103EB000FCF7B0FBD6E9004522462B46FCF7ADFAED
:103EC000C6E90E01D6F88810306F0844FCF7A2FB53
:103ED000D6E91223FCF7A1FAC6E920017842FCF7E3
:103EE00099FB22462B46FCF798FAFCF7BDFB00B283
:103EF0000021FFF7EDFED6F888004042FCF78AFB70
:103F0000D6E91223FCF789FAFCF7AEFB00B20121D7
:103F1000FFF7DEFE012404EBC40006EBC00502E05F
:103F20000A2001F0E5F995F830000328F8D1641C67
:103F3000022CF0DBBDE8F081D802002010B5502043
:103F400080F31188BFF34F8FBFF36F8F01F034FE02
:103F500018B104494FF080500860002080F31188A8
:103F600010BD000004ED00E070B52648264D274E38
:103F70000078274C012820D0322226492846FEF717
:103F80009BFC2868C16841F01001C16021490522ED
:103F9000FA313046FEF790FC3068C16841F01001FC
:103FA000C1601C490522FF312046FEF785FC2068D0
:103FB000C16841F01001C16070BD3222154912483C
:103FC000FEF77AFC2868C16841F01001C160114910
:103FD000322264310D48FEF76FFC3068C16841F051
:103FE0001001C1600B49322296310948FEF764FC8A
:103FF0002068C16841F01001C160BDE87040FEF763
:104000005BBD00000F00002038050020780500206F
:10401000B8050020E800002030B58FB0282105A8A1
:10402000FCF717F914216846FCF713F901210591F3
:104030000804069000240794099102250C950D9020
:104040004FF4E0100E9005A8FDF7D4FB08B1FCF783
:1040500063FD0F200090019502944FF4806003905F
:10406000049402216846FDF79DFA002801D0FCF770
:1040700053FD0FB030BD00000D48016841F0010153
:10408000016041680B4A1140416001680A4A1140D1
:104090000160016821F480210160416821F4FE0182
:1040A00041604FF41F0181600449C00308607047FC
:1040B000001002400000FFF8FFFFF6FE08ED00E0F0
:1040C0000148FDF79BBF0000B80300200148FDF741
:1040D00095BF0000F80300200148FDF78FBF0000E6
:1040E000380400200148FDF789BF00009007002038
:1040F0000148FDF783BF0000780400200148FDF768
:104100007DBF0000B80400200148FDF777BF000024
:10411000F80400202DE9F04102681D4D1D4E1E4F90
:10412000DFF878C01E4B4FF08048A84209D0984273
:1041300007D0404505D0B04203D0B84201D0604519
:1041400003D122F070044A682243A84209D0984261
:1041500007D0404505D0B04203D0B84201D06045F9
:1041600003D122F44074CA6822434C6922F08002D1
:10417000224302608A68C2620A688262A84201D051
:10418000984201D10969016301214161BDE8F081D3
:10419000002C01400004004000080040000C0040DA
:1041A0000034014010B501F01F0101238B40046A67
:1041B0009C430462036A8A401343036210BD10B536
:1041C000846824F47F4442EA03220A432243826043
:1041D00010BD826822F070020A4342F0070181603C
:1041E00070470000F0B5026A22F001020262026A22
:1041F0004368846924F0700424F003050C682C43A0
:1042000022F002058A682A430E4E0F4FB04201D0B9
:10421000B84205D122F00805CA682A4322F00402F8
:10422000B04201D0B84207D123F4807323F4007365
:104230004D691D438B692B43436084614968416329
:104240000262F0BD002C014000340140F0B5026A6A
:1042500022F010020262036A4268846924F4E04496
:1042600024F440740D6844EA052423F020038D688B
:1042700043EA0513104D114EA84201D0B04206D1B9
:1042800023F08003CF6843EA071323F04003A842DA
:1042900001D0B04209D122F4806222F400624D695B
:1042A00042EA85028D6942EA85024260846149687A
:1042B00081630362F0BD0000002C01400034014026
:1042C000F0B5026A22F480720262026A4368C4692D
:1042D00024F0700424F003050C682C4322F40072CF
:1042E0008D6842EA0522104D104EA84201D0B0421E
:1042F00006D122F40062CF6842EA072222F48062EB
:10430000A84201D0B04209D123F4805323F40053D2
:104310004D6943EA05138D6943EA05134360C4619F
:104320004968C1630262F0BD002C014000340140C5
:1043300030B5026A22F480520262046A4268C3699C
:1043400023F4E04323F440730D6843EA052324F487
:1043500000548D6844EA0534084DA84202D0084D47
:10436000A84204D122F480424D6942EA851242609B
:10437000C36149680164046230BD0000002C014043
:104380000034014010B5036A046A24F00104046299
:10439000846924F0F00444EA021423F00A020A4378
:1043A0008461026210BD000070B5046A24F001044B
:1043B00004628469056A124EB0420ED0114EB042BA
:1043C0000BD0B0F1804F08D00F4EB04205D00F4E49
:1043D000B04202D00E4EB04203D124F00304144385
:1043E00001E044F0010424F0F0041A0744EA1262E8
:1043F00025F00A0301F00A0119438261016270BDD0
:10440000002C01400034014000040040000800403E
:10441000000C004010B5036A23F0100303628469A6
:10442000036A24F4704444EA023223F0A00343EA0E
:1044300001118261016210BD30B5046A24F01004DC
:1044400004628569046A25F4407545EA022222F473
:1044500070454FF6FF7202EA03322A4324F0A003AC
:10446000A02404EA011119438261016230BD30B514
:10447000046A24F480740462C469056A24F00304A5
:10448000144324F0F0041A0744EA126225F400737E
:104490004FF4007404EA01211943C261016230BD86
:1044A00030B5046A24F480540462C569046A25F4B2
:1044B000407545EA022222F470454FF6FF7202EA87
:1044C00003322A4324F400534FF4005404EA013128
:1044D0001943C261016230BD3EB50446D4E9000112
:1044E000FCF7C2F8CDF80200D4E90201FCF7BCF8F1
:1044F000CDF80600D4E9040100220A4BFBF78DFF3A
:10450000FCF7B2F8ADF80000074B01220A2168461B
:10451000FFF703F982B2002A03D003490348FEF7EC
:1045200081FA3EBD000024401A0100203805002019
:1045300010B504460021204600F006F82046BDE8EC
:1045400010400121AFF3008030B40C4C01EB81022C
:10455000A054002908D001290DD10123611D30BCD0
:104560001A460748FEF7F8B9012330BC1A4603493A
:104570000448FEF7F1B930BC70470000EC010020A0
:10458000B80500207805002010B5074B07220A2146
:10459000FFF7C3F882B2002A05D0BDE810400249F7
:1045A0000248FEF73FBA10BD1A010020380500206E
:1045B00010B5406A0021C185C184FDF790FF10BD90
:1045C00070B5446A20684069C0F3C01094F839108F
:1045D0000025212904D118B1E584204600F06FF8A8
:1045E00020684069C0F3801094F83A10222904D161
:1045F00018B1E585204600F047F8E06B40F0100068
:10460000E0632046FDF76BFF70BD10B50146486AB8
:1046100009680968890613D40021C1850168CA6840
:1046200022F48072CA6001684A6922F001024A617C
:1046300001684A6922F040024A61202180F83A105C
:10464000FEF788F910BD10B5406AFEF784F910BD79
:1046500010B50146486A0968096889060CD400212A
:10466000C18401684A6922F080024A610068C16819
:1046700041F04001C16010BDFEF71AFA10BD10B53F
:10468000406AFEF716FA10BD0168CA6822F49072FB
:10469000CA6001684A6922F001024A61202180F85B
:1046A0003A10704710B50168CA6822F04002CA602B
:1046B000202180F83910FEF7FBF9002010BD0168B9
:1046C000CA6822F0C002CA60202180F83910704701
:1046D00010B590F83A10222901D0022010BD81684F
:1046E000B1F5805F11D0016919B30168496801F023
:1046F0007F03816A4A1C82620B70C18D491E0904C6
:10470000090CC1851CD0002010BD816A02693AB134
:1047100002685268D2B20A80816A491C8162ECE761
:1047200002685268C2F308020A80816A891C8162A9
:10473000E3E701684A68816A4B1C83620A70DCE720
:104740000168CA6822F02002CA600168CA6822F4BF
:104750008072CA6001684A6922F001024A61202120
:1047600080F83A10FEF7F6F8002010BD2DE9F04170
:10477000044620680169E26821F440511143016157
:10478000A16820690143606901432068C26841F261
:104790000C639A430A43C26020684169A26921F40C
:1047A00040711143416135492068642532268842B1
:1047B00032D1FCF7D5FF00EBC00101EB00106168BE
:1047C0006FF018078900B0FBF1F2B2FBF5F2B0FB15
:1047D000F1F37A4303EB8202B0FBF1F306EB021232
:1047E000B2FBF5F2B3FBF5F302F0F00202EB0312B9
:1047F000B0FBF1F3B0FBF1F0B0FBF5F0784303EB65
:10480000800006EB0010B0FBF5F0216800F00F000F
:1048100010448860BDE8F081FCF792FF00EBC00116
:1048200001EB001061686FF018078900B0FBF1F22E
:10483000B2FBF5F2B0FBF1F37A4303EB8202B0FB7B
:10484000F1F306EB0212B2FBF5F2B3FBF5F302F063
:10485000F00202EB0312B0FBF1F3B0FBF1F0B0FB9E
:10486000F5F0784303EB800006EB0010B0FBF5F0A9
:10487000216800F00F0010448860CBE70038014049
:1048800090F83910212901D0022070478168B1F5D4
:10489000805F0CD0016A4A1C02620268097851608C
:1048A000C18C491E0904090CC18410D019E0016AA9
:1048B00002680988C1F308015160016919B1016AF0
:1048C000491C0162ECE7016A891C0162E8E70168A2
:1048D000CA6822F08002CA600068C16841F04001E5
:1048E000C160002070472DE9F04104460E4617468E
:1048F0009846069D1DE0681C1BD02DB1FCF794FD69
:10490000A0EB0800A84214D92068C16821F4D07136
:10491000C1602068416921F001014161202084F8D3
:10492000390084F83A00002084F838000320BDE8FC
:10493000F0812068006836EA000004D00020B84208
:10494000D9D00020F3E70120F9E7000010B50448B2
:1049500000F020F8BDE810400148FDF7C1BD00009F
:104960003805002010B5044800F014F8BDE81040E8
:104970000148FDF7B5BD00007805002010B50448DA
:1049800000F008F8BDE810400148FDF7A9BD00009F
:10499000B805002038B5044620680168C943C90637
:1049A00079D40168406800902046FDF76CFD2068CE
:1049B000C16821F01001C160606B00684068364931
:1049C000364B384A0D783649012D0CD09C423ED1E9
:1049D000C0F13201344800F069F8322232492046F1
:1049E000FDF76AFF52E09C420AD1C0F132012E4825
:1049F00000F05CF832222C492046FDF75DFF45E0CF
:104A00008C420CD1C0F1320127486430FEF75EF8C9
:104A10002549322264312046FDF74EFF36E09442AC
:104A200034D1C0F1320520492A469631A1F1640003
:104A3000FBF7F6FB1C49AAB232311848FDF7F2FF2A
:104A40001949322296312046FDF736FF1EE08C428E
:104A50000DD1C0F1050114480022FA30FEF7BCF96F
:104A600011490522FA312046FDF726FF0EE0944257
:104A70000CD1C0F105010C4D0122FA35681DFEF77D
:104A8000ABF90522691D2046FDF716FF2068C168B5
:104A900041F01001C16038BD0F0000203805002032
:104AA00078050020B8050020E800002089B2FEF754
:104AB000A7BFFEE7490050EAC12018BF04204A0DF5
:104AC00018BF40F0010040F2FF72B2EB515F08BF27
:104AD00040F00200012808BF052070470907090EB1
:104AE000002804DB00F1E02080F80014704700F09B
:104AF0000F0000F1E02080F8141D70472DE9F74FFA
:104B0000144694B00021C4E902111599079121F0CF
:104B10000045C9498D4206DC1599C4E9000117B06A
:104B20000020BDE8F08FC549DFF814A3A9423CDDA1
:104B30000799C44E0029C44FC44A1599534619DD3C
:104B4000FBF765FC554506D0C14AC24BFBF75FFC3D
:104B5000C4E900010AE04FF0D352BE4BFBF757FC0B
:104B600032463B46FBF753FCC4E9000117B0012075
:104B7000BDE8F08FFBF7AAFB554506D0B44AB54B0C
:104B8000FBF7A4FBC4E900010AE04FF0D352B14B9C
:104B9000FBF79CFB32463B46FBF798FBC4E9000160
:104BA00017B04FF0FF30BDE8F08FAB49A94215991F
:104BB00078DB21F0004183468846A84AA84BFBF7E2
:104BC0002CFC0022A74BFBF781FBFBF74DFD099066
:104BD000FBF720FD06460F469C4A5346FBF71DFC9B
:104BE00043465A46FBF716FC80468A46984A994B3C
:104BF00030463946FBF711FC2A0D01250B9242463F
:104C00005346FBF707FC032DC4E9000139D00B988C
:104C1000C1F30A51401A05EB45111139814230DACE
:104C20009148C346784400EB0510CDF80CA00C90D9
:104C3000D0E9002330463946FBF7EFFB02460B462E
:104C40000491069058460399FBF7E1FB80468A469B
:104C500002460B4658460399FBF7D9FB049B069A7C
:104C6000FBF7D5FB83460C9803913946D0E9022324
:104C70003046FBF7D2FB5A46039BFBF7C8FB6D1C83
:104C8000BDE707980028A2BF099817B0BDE8F08FCC
:104C9000616881F000416160099817B04042BDE849
:104CA000F08FFFE784461598C1F31301C0F30A5053
:104CB000A0F2F5304FEA601800F01F06C6F12000A0
:104CC000139000200690079041F4801E05206D4649
:104CD00076B1664A08EB00017A4452F8213002EBC3
:104CE0008101B3404A68139922FA01F1194305E0A2
:104CF0005F4908EB0002794451F82210A1FB0E270E
:104D0000A1FB0C131A449A4234BF0123002303EB86
:104D1000070A05EB8003D3E901B70F448F4234BF84
:104D20000121002193448B4411B1934502D903E042
:104D3000934501D2012100E00021C3E901B75144AC
:104D400045F82010011EA0F10100C1DC0298059F6A
:104D500000F10050800F12900298DDE903568000A8
:104D6000FBF758FC834628460D91FBF77DFD6FF05D
:104D70001D02FBF733FCCDE90E013046FBF774FD55
:104D80006FF03D02FBF72AFC80468A463846FBF767
:104D90006BFD6FF05D02FBF721FC07464246534670
:104DA0001191FBF793FADDE90E23FBF78FFA5A46D0
:104DB0000D9BFBF78BFA00250E465A4628460D9BA5
:104DC000FBF725FBDDE90E23FBF721FB42465346AB
:104DD000FBF71DFB3A46119BFBF71CFBDFF898A085
:104DE000244A5346FBF719FB07468846234A244BBF
:104DF00031462846FBF711FB3A464346FBF766FA75
:104E0000074688464FF0A842534631462846FBF7EE
:104E100004FB3A464346FBF759FA159A12F0004F45
:104E200004D0129A81F0004152421292C4E900016A
:104E3000129817B0BDE8F08FFB21E93F7CD9024002
:104E4000FB21F93F7370032E8A19A33B00004054E5
:104E50003163621A61B4D03DFB21394183C8C96D09
:104E6000305FE43F0000E03FD81700005417000017
:104E700036170000182D4454FB21F93D3326A611A6
:104E8000460B113C2DE9FF4D21F0004807460C462A
:104E9000B8F1795F08DAFBF7E7FB002801BF0020D3
:104EA000324904B0BDE8F08D3A4623461046194613
:104EB000FBF7B3FA054602462D480E460B4606217F
:104EC000784400F05DF82A463346FBF7A6FADDE9A0
:104ED000022382468B4638462146FBF79EFA04465B
:104EE0000F4652465B4628463146FBF796FA224665
:104EF0003B46FBF78CFA07468A464FF0FF322846BE
:104F00003146FBF76BFB1B4A90450ADA3A4653469B
:104F1000FBF77DFA04B00022BDE8F04D134BFBF720
:104F200079BA154A4245A8BFA8F500154FF000040C
:104F3000B8BF124D22462B46FBF769FA0646884653
:104F400022462B4600200949FBF761FA04460D462C
:104F50003A46534630464146FBF759FA04B02246DA
:104F60002B46BDE8F04DFBF755BA00000000F03FBE
:104F70000C1500003333D33F0000E93F0000D23F5F
:104F80002DE9F0414F1E00EBC7010446D1E90001B5
:104F900015461E4637F006020DD02A463346FBF76B
:104FA0003CFA7F1E04EBC703D3E90023FBF78EF91D
:104FB00037F00602F1D1022F25D0042F13D0062F8F
:104FC00018BFBDE8F0812A463346FBF726FAD4E93C
:104FD0000A23FBF77BF92A463346FBF71EFAD4E98E
:104FE0000823FBF773F92A463346FBF716FAD4E990
:104FF0000623FBF76BF92A463346FBF70EFAD4E992
:105000000423FBF763F92A463346FBF706FAD4E993
:105010000223FBF75BF92A463346FBF7FEF9D4E996
:105020000023BDE8F041FBF751B900002DE9FF4D29
:10503000054621F0004084B00C46B0F1795F0BDAF0
:105040002846FFF737FD042808BF00F06FF8284610
:1050500008B02146BDE8F08D2A460B461046FBF706
:10506000DCF906460F462A462346FBF7D6F980466A
:1050700026488A4632463B4605217844FFF780FFA2
:1050800083461098029160B3214A224B4046514614
:10509000FBF7C3F9CDE900015A4640465146029B51
:1050A000FBF7BBF982468846DDE906014FF0FF3287
:1050B000FBF794FA52464346FBF7A9F932463B46C2
:1050C000FBF7ABF9DDE90623FBF7A1F9DDE90023E6
:1050D000FBF79DF908B02A462346BDE8F04DFBF7E3
:1050E00099B90B465A4630463946FBF796F9084AB5
:1050F000084BFBF7EBF842465346FBF78EF908B036
:105100002A462346BDE8F04DFBF7E0B84A140000FC
:10511000495555555555C5BF0122FBF75FBA0022C9
:10512000134610461146FBF7EAB90000024A002078
:105130001107FBF753BA000001FDFFFF02E008C8AA
:10514000121F08C1002AFAD170477047002001E001
:1051500001C1121F002AFBD17047000001490860FD
:1051600070470000AC00002000B5244B21F0004245
:1051700087B09A42DCBF0022134629DD204B9A42B9
:1051800008D140B94FF00100FFF7E8FFFFF7C7FF74
:1051900007B000BD03DBFFF7BFFF07B000BD02AAE9
:1051A000FFF7ACFC10F0030104BF0DF1080C9CE804
:1051B0000F000DD0012001290ED0022914D00DF1CD
:1051C000080C00909CE80F00FFF730FF07B000BD0F
:1051D000FFF758FE07B000BD0DF1080C00909CE8E9
:1051E0000F00FFF723FF05E00DF1080C9CE80F000E
:1051F000FFF748FE07B081F0004100BDFB21E93F09
:105200000000F07FFCF71EF9FEF706FFFDF706FF32
:10521000FDF780FEFDF7DEFFFEF738F8FDF78EFFA5
:10522000FEF780F8FDF750FEFEF7ECF8FEF736F9D2
:10523000FEF750F9FEF76AF9FEF7C0F8244C012298
:1052400011032046FCF7E9F80A20FBF7C3FF6114BD
:105250002046FCF7DBF81F49012801D10020087027
:105260000878012812D0FDF7CDFDFDF7E7FD4820B5
:10527000FDF700FE0A20FBF7ADFFFEF775FEFEF717
:10528000C1FCFDF785FE00F03BF8FEE70021124867
:10529000FCF785FE00211148FCF781FE00231A4629
:1052A00019460F48FBF7C2FC00231A4610210C4890
:1052B000FBF7BCFC00210A48FBF7C8FC102108489A
:1052C000FBF7C4FCFEF750FEFEF74CF9D9E70000EF
:1052D000000C01400F000020B8030020F80400205B
:1052E000A403002001460020842900D0C81C704778
:1052F00010B5002800D1012000F046FB002010BDB1
:1053000010B500F069FB002010BD3EB504460D4607
:10531000B4F90800FFF7E6FF02A9CDE90001208AF1
:105320002B4682B2D4E9001000F016FC012801D00F
:1053300000203EBD02983EBD2DE9F04104460F46D7
:10534000174E75693068001D00F062FA38B9306890
:1053500090F82C1001208840B1698143B161601C34
:1053600007D137B13168BDE8F041091D0D4800F0A3
:1053700088BA2C4430684460AC4206D23168B068C8
:10538000091DBDE8F04100F064BA31687068091D7C
:1053900000F05FFA306B844200D23463BDE8F081E4
:1053A0004C000020AC08002070B5044600F076FAEE
:1053B0001C4D2869401C2861286810B1E86938B183
:1053C0000CE02C602869012808D100F0DBF805E02A
:1053D0002868E16AC06A884200D82C60E86A401CEC
:1053E000E862E06A0121AA6981401143A9610E497E
:1053F00000EB800001EB8000211D00F042FA00F07C
:105400006DFAE86900280CD02868E16AC06A884211
:1054100007D206494FF080500860BFF34F8FBFF3AB
:105420006F8F70BD4C000020D007002004ED00E01D
:1054300070B50C4D0C4E11E000F030FAF068C46805
:10544000201D00F0E5F92869401E2861E868401E2B
:10545000E86000F043FA204600F008F8E868002809
:10546000EAD170BD4C0000209808002010B5044619
:10547000206B00F049FA2046BDE8104000F044BA25
:105480004FF440610F48420706D0C01D20F00700CE
:105490000C49411AC1F540610B4A1060002353606A
:1054A0000144083921F00701103A11604B600B608C
:1054B0000B1A436001604068906050604FF00040FC
:1054C000D0607047C008002098000020074E4FF0C1
:1054D0008054074DFFF7ACFF30680128FAD92C60E3
:1054E000BFF34F8FBFF36F8FF4E70000D0070020AA
:1054F00004ED00E02DE9F0478146DDE908570A9CFC
:105500009846521E206B00EB820020F007067007C1
:1055100007D0502080F31188BFF34F8FBFF36F8FF8
:10552000FEE7002023180A5C83F834200A5C12B1DD
:10553000401C1028F6D34FF0000A84F843A0072D32
:1055400000D30625E5626564C4F848A0201D00F07C
:105550007DF904F1180000F079F92461C5F1070024
:10556000A0616462C4F84CA084F850A04246494649
:10557000304600F0EFF82060002F00D03C60BDE81E
:10558000F087000070B50024124D04EB840005EB99
:10559000800000F050F9641C072CF6D30D488C30C5
:1055A00000F049F90B48A03000F045F90948B43043
:1055B00000F041F90748C83000F03DF90548DC30FB
:1055C00000F039F9034904488C314160143181609D
:1055D00070BD0000D00700204C00002030B51349FA
:1055E00000E011460A688242FBD34B685C18844293
:1055F00003D140681844486008460D684468231881
:10560000AB420DD1094B103B1B689A4206D0526841
:10561000224442600A681268026002E0036000E00F
:105620000260814200D0086030BD00009800002078
:10563000074841680968002905D04168C968C968F8
:105640004968016370474FF0FF3101637047000004
:105650004C00002009484068401C07D0502080F3CF
:105660001188BFF34F8FBFF36F8FFEE7502080F399
:105670001188BFF34F8FBFF36F8FFEE7A0000020AC
:105680002DE9F0410546002600F0DAF9304F386880
:1056900008B9FFF7F5FEF86805424AD18DB1083523
:1056A00068070ED005F00700C0F108000544680740
:1056B00007D0502080F31188BFF34F8FBFF36F8F57
:1056C000FEE7B5B37868854233D8214910310846E2
:1056D000046801E0214604466068A84202D22068BE
:1056E0000028F7D13868844223D00E680836206835
:1056F00008606068411B10290ED96019420707D065
:10570000502080F31188BFF34F8FBFF36F8FFEE7F8
:1057100041606560FFF762FF61687868401A7860F1
:10572000BA68904200D2B860F86801436160002016
:10573000206000F0A7FA700707D0502080F311888E
:10574000BFF34F8FBFF36F8FFEE73046BDE8F081A8
:105750008800002020384FF08073C36121F00101E0
:1057600081610249416140F820297047555600087F
:1057700000B5254B21F0004287B09A4203DC00229D
:10578000134600922BE0214B9A4208D140B94FF0CA
:105790000100FFF7E3FCFFF7C2FC07B000BD03DB2D
:1057A000FFF7BAFC07B000BD02AAFFF7A7F910F097
:1057B00003014FF001000DD0012914D002291AD0A5
:1057C0000DF1080C9CE80F00FFF75CFB07B081F0BF
:1057D000004100BD0DF1080C00909CE80F00FFF7A0
:1057E00025FC07B000BD0DF1080C9CE80F00FFF789
:1057F00049FB07B000BD0DF1080C00909CE80F00BC
:10580000FFF714FCE2E70000FB21E93F0000F07F16
:105810000169D0E901329A60D0E901235A604A68EF
:10582000824201D182684A60002202610868401EFB
:1058300008600868704700F1080141604FF0FF32CE
:105840008260C16001610021016070470021016137
:10585000704730B50C68621C02D000F1080202E00B
:10586000026904E01A4653681D68A542FAD95368D4
:105870004B6099608A60516008610168491C016051
:1058800030BD42684A6093688B609368596091604C
:1058900008610168491C016070470000502080F3D6
:1058A0001188BFF34F8FBFF36F8F0A494868401CC0
:1058B000486001280CD10848006810F0FF0F07D09D
:1058C000502080F31188BFF34F8FBFF36F8FFEE737
:1058D00070470000A000002004ED00E0094948687E
:1058E000002806D0401E4860002801D180F31188AE
:1058F0007047502080F31188BFF34F8FBFF36F8F35
:10590000FEE70000A000002070B5002827D008386E
:105910000446134D6068E968084207D1502080F3BF
:105920001188BFF34F8FBFF36F8FFEE722683AB144
:10593000502080F31188BFF34F8FBFF36F8FFEE7C6
:105940008843606000F07CF86068696808446860BB
:105950002046FFF743FEBDE8704000F093B970BDEC
:10596000880000204FF0E02000210161816105499D
:105970004FF47A720968B1FBF2F1491E41610721C7
:10598000016170474800002010B502460020002A3F
:1059900012D00F48806B38B1502080F31188BFF3CC
:1059A0004F8FBFF36F8FFEE700F04AF800211046DB
:1059B000FFF7C2FC00F066F9002807D105494FF057
:1059C00080500860BFF34F8FBFF36F8F10BD000092
:1059D0004C00002004ED00E01CB515480024CDE982
:1059E00000402346802213A1144800F0B5F8012896
:1059F00009D0401C1AD1502080F31188BFF34F8F7B
:105A0000BFF36F8FFEE7502080F31188BFF34F8FF5
:105A1000BFF36F8F06484FF0FF3134380163012127
:105A2000C1614461BDE81C4000F042B81CBD0000EB
:105A30008000002049444C4500000000CD5400087F
:105A40000248816B491C8163704700004C000020B4
:105A5000154A906B002802D0012050627047002048
:105A600050629069B0FA80F0C0F11F000F4900EB5E
:105A7000800051F8203073B101EB80004168496823
:105A8000416000F10803994201D1496841604068D2
:105A9000C06810607047502080F31188BFF34F8FAB
:105AA000BFF36F8FFEE700004C000020D0070020FE
:105AB0001CB5264908780190FF20087008780090EE
:105AC0009DF800009DF8002000F0F000904207D003
:105AD000502080F31188BFF34F8FBFF36F8FFEE725
