:020000040800F2
:10000000C01A0020DD01000865360008BD2900087F
:10001000E1300008DB09000873440008000000001C
:100020000000000000000000000000004501000882
:10003000B90A000800000000890100080D3A000814
:10004000F7010008F7010008F7010008F7010008B0
:10005000F7010008F7010008F7010008F7010008A0
:10006000F7010008F7010008F7010008F701000890
:10007000210A00082D0A0008390A0008450A00086C
:10008000510A00085D0A0008F7010008F70100089E
:10009000F7010008F7010008F7010008F701000860
:1000A000F7010008F7010008F7010008593B0008B4
:1000B000F7010008653B0008713B0008F7010008E4
:1000C000F7010008F7010008F7010008F701000830
:1000D000F7010008654300087D43000895430008C8
:1000E000F7010008F7010008F7010008F701000810
:1000F000F7010008F7010008893B0008F701000834
:10010000F7010008F7010008F7010008F7010008EF
:10011000F7010008F70100087D3B0008F70100081F
:10012000F7010008F7010008F7010008F7010008CF
:10013000DFF80CD000F032FC00480047C54B000847
:10014000C01A0020224B19680868B0E8F00F80F34D
:100150000988BFF36F8F4FF0000080F311884EF0D5
:100160000D0E70470000000006480068006880F32C
:10017000088862B661B6BFF34F8FBFF36F8F00DFA1
:1001800000BF00BF08ED00E0EFF30980BFF36F8F01
:100190000F4B1A6820E9F00F106008B54FF05000BF
:1001A00080F31188BFF34F8FBFF36F8F05F018F9FD
:1001B0004FF0000080F31188BDE808401968086816
:1001C000B0E8F00F80F30988BFF36F8F704700BF6E
:1001D00044000020EFF30580704700000648804788
:1001E00006480047FEE7FEE7FEE7FEE7FEE7FEE71C
:1001F000FEE7FEE7FEE7FEE7113B000831010008DD
:10020000202A04DB203A21FA02F00021704721FA6B
:1002100002F3D040C2F120029140084319467047D2
:1002200040EA01039B0703D009E008C9121F08C078
:10023000042AFAD203E011F8013B00F8013B521EF8
:10024000F9D27047D2B201E000F8012B491EFBD26F
:1002500070470022F6E710B513460A4604461946D1
:10026000FFF7F0FF204610BD30B505462A460B4685
:1002700012F8010B13F8014B08B1A042F8D01CB1E1
:10028000002802D06D1CF1E7284630BDF0B480EAAA
:100290000102D40F4200B2EB410F02D202460846DF
:1002A00011464A0042D0C30DDDB2C1F3C752AD1AA8
:1002B000202D35DAC1F3160141F4000204B1524297
:1002C000C5F1200602FA06F12A411044B3EBD05FD3
:1002D00023D0C4B1012DA0EBC35009DCF0BC4FF01A
:1002E000004202EAC352DBB200F5000000F0CABAD5
:1002F000400000F1807000EBC350A0F1807040EA34
:10030000D170490009E0490841EAC071A0EBC3502F
:1003100000F50000400800EBC350F0BC00F0A9BAA3
:100320006142012202EB4101001BF6E7F0BC70477D
:1003300081F00041AAE780F00040A7E780EA0102CF
:1003400010B502F00043400022D04A001FD0010E39
:1003500001EB1261C0F35600C2F3560240F40000F4
:1003600042F40002A0FB022000047F39140400D0F4
:10037000401C50EA124001D44000491EC2B20C0693
:1003800004EBD010401C4008802A02D003E000207B
:1003900010BD20F00100002900DA0020184310BD34
:1003A00030B480EA010202F0004530F0004221F052
:1003B000004013D090B1C30DD40DC2F31601C0F3A9
:1003C0001600E41A41F4000140F400027D34914229
:1003D00001D3641C00E04900002C02DA30BC00208C
:1003E00070474FF400000023914201D3891A034360
:1003F00040084FEA4101F7D151B1914202D14FF08B
:10040000004105E002D24FF0010101E06FF001016F
:1004100003EBC450284430BC00F02BBA2DE9FE4F4A
:10042000804681EA0300C00F0C46009021F0004195
:1004300023F00045B8EB0200A94105D24046214611
:1004400090461C460B46024623F00040104347D01E
:10045000270DC7F30A00C3F30A510290401A019016
:1004600040286BDAC3F3130040F4801B00989246D7
:1004700020B10023D2EB030A63EB0B0B0198594622
:10048000C0F14002504600F0D3F906460D465046F2
:100490005946019A00F0DBF910EB08006141002495
:1004A00087EA115284EAE7731A4340D0009A62B394
:1004B000019A012A4FEA075215DC001B61EB020189
:1004C0004FF0004202EA0752CDE90042001C41F51C
:1004D000801132462B4600F012FA03B0BDE8F08FCF
:1004E00040462146F9E7001B61EB0201001C41F583
:1004F000801300185B412018A2F5001747EB030199
:1005000040EAD570B6196D4111E06D084FEA360624
:1005100045EAC0754FEA0752001B61EB0201001C5F
:1005200041F5801149084FEA300000195141324627
:100530002B4603B0BDE8F04F00F0D2B9009801227D
:1005400040000023D0EB020263EBE07300982146E9
:100550004FEAE074B8EB000061EB0401E9E783F0D7
:1005600000435BE781F0004158E72DE9FE4F81EA47
:10057000030404F0004421F0004100944FF0000B0C
:1005800023F0004350EA01045ED052EA03045BD03A
:10059000C3F30A54C1F30A552C44A4F2F334019472
:1005A000A0FB0254C1F3130141F48011C3F3130300
:1005B00043F4801301FB024400FB034E840A970AB4
:1005C00044EA815447EA8357A4FB076802958D0AE1
:1005D00005FB07854FEA932C04FB0C542705029D6D
:1005E0004FEA065847EA1637B5EB08056EEB070CDD
:1005F000870E920E47EA811742EA8312A7FB020197
:10060000B6EB0B0164EB00042B0D43EA0C335E18D0
:1006100044EB1C50DA465146E7FB0201C5F31304D4
:100620004FEA0B3343EA14534FEA0432019C43EA86
:100630000603A4F10C040294009CCDE900B400F080
:100640005EF903B0BDE8F08F00200146F9E72DE91F
:10065000F04D81EA030404F0004B21F000451446FC
:100660004FF0000A23F0004150EA050220D054EA7E
:1006700001021DD0C5F30A570246C5F31303C1F3A7
:100680001300C1F30A5640F4801543F48013A7EB1E
:100690000608101BD64608F2FD3873EB050002D39E
:1006A00008F1010801E092185B41B8F1000F03DA8C
:1006B00000200146BDE8F08D00204FF48011064671
:1006C00084460EE0171B73EB050705D3121B63EB83
:1006D000050306434CEA010C49084FEA3000921822
:1006E0005B4150EA0107EDD152EA030012D082EAE1
:1006F000040083EA0501084305D0101BAB4106D274
:100700000122002306E000224FF0004302E06FF0D8
:10071000010253101AEB06004CEB085110EB0A00D3
:1007200041EB0B01BDE8F04D00F0DAB870B521F0F7
:10073000004303430CD0C1F30A550024D5EB040554
:1007400064EB0403D617AD1AB34102DB0020014667
:1007500070BD201841EB025170BDC10F80EAE070FE
:100760000844CA079623002100F08CB89623002283
:10077000114600F087B80EB5C10F80EAE07008445A
:10078000CA07002140F233438DE80E000A460B46AB
:1007900000F0B5F803B000BD00F0004220F00040CA
:1007A000C10DC0F3160040F400007F2901DA0020DB
:1007B0007047962903DCC1F19601C84001E09639E3
:1007C0008840002AF4D04042704720F00040C10D1C
:1007D000C0F3160040F400007F2901DA00207047C2
:1007E000962903DCC1F19601C840704796398840CC
:1007F000704770B5C1F30A5201F000450024C1F3FF
:10080000130140F2FF3341F480119A4201DA0020D3
:1008100070BD40F233439A42A2F2334203DC5242AB
:10082000FFF7EEFC00E090402C43F1D0404270BD59
:10083000202A04DB203A00FA02F1002070479140A0
:10084000C2F1200320FA03F3194390407047202A95
:1008500006DBCB17203A41FA02F043EAE07306E0E8
:1008600041FA02F3D040C2F12002914008431946F8
:1008700070470029A8BF7047401C490008BF20F0FE
:100880000100704710B4B0FA80FC00FA0CF050EA96
:10089000010404BF10BC704749B1CCF1200421FA17
:1008A00004F411FA0CF118BF012121430843A3EB12
:1008B0000C01CB1D4FEA00614FEA102042BF00201F
:1008C00010BC704700EBC35010440029A4BF10BCFB
:1008D0007047401C490008BF20F0010010BC704761
:1008E00010B5141E73F1000408DA401C41F1000138
:1008F00092185B411A4301D120F0010010BD2DE98F
:10090000F04D92469B4611B1B1FA81F202E0B0FA85
:1009100080F220329046FFF78BFF04460F4640EAF4
:100920000A0041EA0B0153465A46084313D01146C8
:1009300053EA010019D0C8F140025046FFF760FCAD
:1009400005460E46504659464246FFF771FF08439A
:1009500005D0012004E020463946BDE8F08D002096
:10096000054346EAE0762C4337430A986305E40AD8
:10097000A0EB08000022FD0A44EA47540A3002D5E1
:1009800000200146E9E7010510196941DDE9084544
:1009900000196941BDE8F04DA2E70000064C074D83
:1009A00006E0E06840F0010394E80700984710343F
:1009B000AC42F6D3FFF7C0FBC85E0008E85E000853
:1009C0000EB540F2334102910021CDE900110A46F3
:1009D0000B46FFF794FF03B000BDFEE730B50446B9
:1009E0000D4643F6A320002303E0E15C00F004F889
:1009F0005B1CAB42F9D330BD80EA0102D1B2034A9D
:100A000052F8211081EA102070470000E0580008D9
:100A100000B5FFF7E3FF08B1002000BD012000BDD5
:100A2000014800F0FDBA00004C090020014800F028
:100A3000F7BA000008090020014800F0F1BA0000F0
:100A40003C080020014800F0EBBA0000F807002045
:100A5000014800F0E5BA000080080020014800F0DD
:100A6000DFBA0000C408002030B590F840500124DF
:100A7000AC40C56B6C60046863604368102B04D0A5
:100A8000036899600068C26030BD03689A600068BE
:100A9000C16030BDC178001D01290AD10549028815
:100AA0000A80D0F80220C1F80220D0F80600C1F870
:100AB000060070472002002070470000642004F008
:100AC000DFF8314D4FF028084FF0FF3701264FF087
:100AD0005009A5F10C0400F023F9E8B309282FD23E
:100AE000DFE800F02E05080D12171C2129006E60AA
:100AF0002E6025E0002068602860A06020E02F6064
:100B00006E60C4F808801BE02E606F60C4F8088037
:100B100016E02F606F60C4F8089011E02E606E60E0
:100B2000C4F808900CE0A0684000A06061688842AA
:100B300006DDA16004E0A06800EBD0704010A0606A
:100B40002868A1684843FFF708FE2168FFF7F6FB15
:100B5000FFF722FE014600E011E00C4802F01CFB0A
:100B60006868A1684843FFF7F8FD2168FFF7E6FBD6
:100B7000FFF712FE01460548383002F00DFB322027
:100B800004F07EF8A7E700000C000020B001002070
:100B90002DE9F0412B4ED6E90180A8EB0000FFF7CC
:100BA000EAFDD6E90423FFF752FD04460D46C6E9E7
:100BB0000601D6E90F70381AFFF7DDFDD6E91223DA
:100BC000FFF745FDC6E91401C6F8088037642246E0
:100BD0002B46FFF723FC4FF0FF32FFF7A7FD04463B
:100BE0000D4600F0A5F8A6F11808C8E90401164A58
:100BF000164BFFF7BAFC0022154BFFF728FD0646FF
:100C00000F463046394603F08FFF22462B46FFF74A
:100C1000ACFCD8E90023FFF701FCC8E9000130462D
:100C2000394604F06DFA22462B46FFF79EFCD8E9C0
:100C30000223FFF7F3FBC8E902014046BDE8F0419B
:100C400003F08AB9B0010020182D4454FB2109405B
:100C500000806640FFF79CFF322004F011F8F9E7AE
:100C6000704770B504460D4616462946204602F0E8
:100C70001DFB2946204602F049FB32462946204604
:100C8000BDE8704002F092BB2DE9F047052002F06C
:100C900059FE124E0125E8B1DFF844904FF4165783
:100CA0004FF41648384601F081FF032002F020FE81
:100CB000404601F07BFF484602F062FE04460520F4
:100CC00002F040FE08B1002CECD135704FF4FA7000
:100CD00000F070FB3570BDE8F08700001A000020BE
:100CE000A086010010B50C460A4A1378002B0DD0DF
:100CF00009490246A1F5C870FFF792FA2246074952
:100D0000BDE8104001F54870FFF7ABBF50800120EF
:100D1000507010BD1A000020EC0300205C0200207F
:100D20000249087800220A70704700001400002071
:100D30000149D1E9100170475001002070B5437995
:100D4000012B20D0012646710223037103681D6820
:100D500002F0100240F6FE749440A543D1E9004130
:100D60000C4394402C431C6003681C68C0219140D4
:100D70008C431C60026813688B431360067100216A
:100D80004171002070BD022070BD70B50446002C7A
:100D900003D02079002510B105E0012070BD6571F8
:100DA000204600F007F80220207125610120207103
:100DB000002070BD00B585B0002101910291039122
:100DC000049100680E49884218D10E48C16941F06B
:100DD0000051C161C16901F000510091816941F088
:100DE00004018161806900F00400009030200190CE
:100DF0000320029001A9044800F0EEFA05B000BDFE
:100E000000740040001002400008014018B504685A
:100E1000009400680029104405D014300090009818
:100E20000360002018BD08300090F8E770B54279E3
:100E3000012A1DD001263446467102220271036840
:100E40001D6801F01002944025431D6091B10168B6
:100E50000B6803F470143C2393409C4203D14A680E
:100E600042F002024A60067100214171002070BD0B
:100E7000022070BD01680A68C2F383020F2AF2D112
:100E80004A6842F001024A60EDE710B590F821107F
:100E90000022022905D00421816380F8202001204E
:100EA00010BD01680B6823F00E030B6001680B682E
:100EB00023F001030B6090F84030C46B012101FA6C
:100EC00003F3636080F8211080F82020104610BDE5
:100ED0002DE9F05F002590F82110022903D00421AC
:100EE0008163012595E001680A6822F00E020A601C
:100EF00001680A6822F001020A60474E464FB215A7
:100F0000DFF814C1DFF81081DFF80C91DFF808A1D9
:100F1000DFF804B10168783F13011402ACF1640CEE
:100F2000A8F15008A9F13C09AAF1280AABF1140B69
:100F30004FF4801EB1422FD9B94201D1012227E0DE
:100F4000614501D1102223E0414521D0494501D11D
:100F50001A461DE0514501D1224619E0594501D1FB
:100F6000724615E02D4EB14201D1012210E02B4E08
:100F70001436B14201D110220AE0284E2836B1427F
:100F800006D0264A3C32914201D11A4600E0224660
:100F90002249091F0A6033E0B94201D101222CE045
:100FA000614501D1102228E0414526D0494501D1B3
:100FB0001A4622E0514501D122461EE0594501D191
:100FC00072461AE0B14202D14FF0807215E0134E22
:100FD000B14201D1012210E0104E1436B14201D1CC
:100FE00010220AE00D4E2836B14206D00B4A3C32A0
:100FF000914201D11A4600E02246074980394A60F1
:10100000012180F82110002180F82010416B01B1EE
:1010100088472846BDE8F09F80000240080402404F
:101020002DE9F05FC16B0A6801680B68046C4FF032
:10103000040E0EFA04FE9A4D9A4E9B4FDFF86CC2D6
:10104000DFF86C82DFF86C92DFF86CA2DFF86CB22C
:101050001EEA020F7BD05FEA437E78D50A689206CB
:1010600003D40A6822F004020A60DFF848E24FF471
:10107000806201680EF1140E1301140271452DD91E
:10108000A94201D1042225E0B14201D1402221E050
:10109000B9421FD0614501D11A461BE0414501D13B
:1010A000224617E0494502D14FF4800212E0514533
:1010B00001D104220EE0594501D140220AE07F4DC2
:1010C0001435A94206D07D4A2832914201D11A46F0
:1010D00000E022467849091F0A6032E0A94201D1A6
:1010E00004222BE0B14201D1402227E0B94225D0B1
:1010F000614501D11A4621E0414501D122461DE05A
:10110000494502D14FF4800218E0714502D14FF0F9
:10111000806213E0514501D104220FE0594501D10D
:1011200040220BE0654D1435A94207D0634A2832AE
:10113000914202D11A4601E009E022465849083995
:101140004A60C16A00296FD0BDE8F05F08474FF0E0
:10115000020E0EFA04FE1EEA020F74D05FEA837ECE
:101160007FD50A68920606D40A6822F00A020A604D
:10117000012180F82110DFF83CE14FF40072016892
:101180000EF1140E1301140271452DD9A94201D19B
:10119000022225E0B14201D1202221E0B9421FD034
:1011A000614501D11A461BE0414501D1224617E0B5
:1011B000494502D14FF4001212E0514501D10222FB
:1011C0000EE0594501D120220AE03C4D1435A942D8
:1011D00006D03A4A2832914201D11A4600E022460E
:1011E0003549091F0A6033E0A94201D102222CE0EF
:1011F000B14201D1202228E0B94226D0614501D177
:101200001A4622E0414501D122461EE0494502D15D
:101210004FF4001219E0714502D14FF0007214E052
:10122000514502D1022210E038E0594501D1202277
:101230000BE0224D1435A94207D0204A28329142B2
:1012400002D11A4601E00CE02246154908394A60ED
:10125000002180F82010816A00291FD0BDE8F05FCE
:1012600008470825A540154218D01A0716D50A6860
:1012700022F00E020A6090F84020C36B012101FAAF
:1012800002F25A60816380F82110002180F820105A
:10129000016B002902D0BDE8F05F0847BDE8F09F70
:1012A000080002401C00024030000240440002409E
:1012B000580002406C000240080402401C04024036
:1012C00030B500280DD01B4B0168142299420AD278
:1012D000194B0B44B3FBF2F292000264174AC2634B
:1012E0000BE0012030BD134B5B420B44B3FBF2F229
:1012F000920002640F4A083AC2630222001D42773C
:101300000A6843F6F0739A43D0E900342343D0E9E6
:1013100002452C43234304692343446923438469DE
:10132000234313430B60002141630122427701777D
:10133000002030BD08040240F8FFFDBF000002405D
:1013400070B50446002594F8200001280CD0012037
:1013500084F8200094F821600020012E06D084F843
:1013600020000225284670BD022070BD022684F8A8
:101370002160A0632068066826F00106066020460A
:10138000FFF772FBE06A28B12068016841F00E01A6
:10139000016009E02068016821F004010160206813
:1013A000016841F00A0101602068016841F0010113
:1013B0000160D7E770B5044600F026F90546601CC9
:1013C00002D004480078044400F01EF9401BA042FB
:1013D000FAD370BD340000202DE9F84F002400231B
:1013E000DFF8E0914FF00F0809F1040A0AF1040B4D
:1013F0000BF1040EDFE00127A7403A40BA4275D155
:10140000DFF8C4C14D68A5EB0C0665452BD00DDC9B
:10141000032D34D005DC35B3012D19D0022D2FD189
:101420001BE0112D16D0122D2AD119E0B6F5881F18
:1014300019D006DCB6F5803F15D0B6F5801F1FD158
:1014400011E0B6F5001F0ED0B6F5041F18D10AE062
:10145000CB6815E0CB681B1D12E0CB6808330FE0AA
:10146000CB680C330CE08B6823B1012B04D008232C
:10147000476105E0042303E00823076100E000233F
:10148000FF2A01D8054601E000F1040502D84FEA21
:10149000840603E0A4F108064FEA86062F6808FADE
:1014A00006FC27EA0C0703FA06F647EA06072F6050
:1014B0004D68ED007ED5454DAE6946F00106AE6142
:1014C000AD6905F001050095414D24F0030677193B
:1014D000BE68A5072D0F08FA05FC26EA0C06DFF802
:1014E000F4C0604503D14FF0000C25E062E0DFF866
:1014F000E8C0604502D14FF0010C1DE0DFF8DCC010
:10150000604502D14FF0020C16E0DFF8D4C0604510
:1015100002D14FF0030C0FE0DFF8C8C0604502D1E4
:101520004FF0040C08E0DFF8C0C0604502D14FF076
:10153000050C01E04FF0060C0CFA05FC4CEA060C19
:10154000C7F808C04D68ED0305D5D9F8005015431C
:10155000C9F8005004E0D9F800509543C9F800508C
:101560004D68AD0305D5DAF800501543CAF80050B0
:1015700004E0DAF800509543CAF800504D68ED02D7
:1015800005D5DBF800501543CBF8005004E0DBF83C
:1015900000509543CBF800504D68AD0205D5DEF8FC
:1015A00000501543CEF8005004E0DEF8005095439B
:1015B000CEF80050641C0A6832FA04F57FF41BAFC1
:1015C000BDE8F88F00040140000011100010024037
:1015D0000000014000080140000C014000100140E3
:1015E0000014014000180140001C014080680842BE
:1015F00001D00120704700207047002A01D001610E
:101600007047090401617047014880687047000015
:1016100034000020024881680278114481607047DC
:101620003400002010B50748016841F01001016046
:10163000032000F095F8002000F006F800F03EF8D6
:10164000002010BD0020024000B587B001460022F6
:101650001E2000F065F81E2000F054F81348C16900
:1016600041F00401C161C06900F00400009001A9CB
:1016700002A800F031F900F053F940000C49B0FB2A
:10168000F1F1491E0C480B4A026040F2E732C26099
:10169000416000210161816000F081FB10B10120F7
:1016A00007B000BD044800F01BFCF9E70010024041
:1016B00040420F00000800409009002008B50F4884
:1016C000816941F001018161816901F001010091AD
:1016D000C16941F08051C161C06900F08050009043
:1016E00000220F21901E00F01BF80549486820F0E9
:1016F000E06040F00070486008BD0000001002404B
:1017000000000140002809DB00F01F020121914088
:101710004009800000F1E020C0F80011704700008F
:10172000F0B40D460D4B1B68C3F30223C3F107044D
:10173000042C00D90424191D072901D2002300E03C
:10174000DB1E012606FA04F1491E294099409E40FD
:10175000761E16403143F0BC02F0A0BE0CED00E056
:1017600000F00701054A10684FF6FF03184040EAF1
:101770000120034908431060704700000CED00E0B1
:101780000000FA052DE9F04704460D46002C17D05D
:10179000DFF83081D8F8000000F00700A84211D22D
:1017A000D8F8000020F007002843C8F80000D8F857
:1017B000000000F00700A84204D00120BDE8F08737
:1017C0000120FBE72068404E810712D5400703D572
:1017D000706840F4E06070602078000703D570689E
:1017E00040F4605070607068A16820F0F000084319
:1017F00070602078C0072CD06068012806D00228CD
:1018000009D0316889070BD40120D7E731688903F3
:1018100006D40120D2E73168890101D40120CDE747
:10182000716821F0030101437160FFF7EDFE074687
:1018300041F2883906E0FFF7E7FEC01B484501D9B1
:101840000320BBE77068616800F00C00B0EB810F0B
:10185000F1D1D8F8000000F00700A8420ED9D8F85E
:10186000000020F007002843C8F80000D8F8000066
:1018700000F00700A84201D001209FE72078400730
:1018800005D57068E16820F4E06008437060207856
:10189000000706D57068216920F4605040EAC10055
:1018A000706000F05DF87168084AC1F30311515C83
:1018B000C8400749086007480068FFF7C5FE0020D8
:1018C0007CE700000020024000100240545D000848
:1018D00040000020380000200F2202600B4A5368AD
:1018E00003F003034360536803F0F003836053681D
:1018F00003F4E063C360526802F46052D2080261EC
:101900000348006800F007000860704700100240BC
:10191000002002400148006870470000400000209D
:1019200000B5FFF7F7FF04494968044AC1F30221F3
:10193000515CC84000BD000000100240645D00081A
:1019400000B5FFF7E7FF04494968044AC1F3C22123
:10195000515CC84000BD000000100240645D0008FA
:1019600085B014A090E80E00C068CDE90223019173
:10197000049014A000680090134B5968134801F0BC
:101980000C02042A10D0082A0ED101A8C1F3834208
:10199000805CC9030AD55968C1F340411DF80110A4
:1019A0000A4A5043B0FBF1F005B07047084948437C
:1019B000FAE7000002030405060708090A0B0C0DEC
:1019C0000E0F1010010200000010024000127A00F9
:1019D00000093D002DE9F84F0446002C0ED0207878
:1019E000D94DC0075ED06868C0F3810001280BD0D4
:1019F0006868C0F38100022803D00CE00120BDE834
:101A0000F88F6868C00306D5286880034AD56068E7
:101A1000A8BB0120F3E76068B0F5803F11D0A8B102
:101A2000B0F5A02F1BD0286820F4803028602868EB
:101A300020F480202860606830B3FFF7E5FD06469B
:101A40001EE0286840F480302860F4E7286820F41D
:101A500080302860286820F480202860EBE7286820
:101A600040F480202860286840F480302860E2E755
:101A7000FFF7CAFD801B642802D90320BFE711E0ED
:101A800028688003F4D50DE0FFF7BEFD064606E0AA
:101A9000FFF7BAFD801B642801D90320AFE728684F
:101AA0008003F5D42078DFF8A48280074FF0010A84
:101AB0004FF0000945D5686810F00C0F07D0686832
:101AC000C0F38100022812D16868C0030FD42868CF
:101AD000800704D52069012801D001208FE72868FC
:101AE000616920F0F80040EAC100286029E020691F
:101AF000B8B1C8F800A0FFF787FD064606E0FFF77B
:101B000083FD801B022801D9032078E7286880071D
:101B1000F5D52868616920F0F80040EAC100286026
:101B20000FE0C8F80090FFF76FFD064606E0FFF7EC
:101B30006BFD801B022801D9032060E7286880071D
:101B4000F5D42078000726D58148A16999B1C0F85D
:101B500000A0FFF759FD064606E0FFF755FD801B84
:101B6000022801D903204AE7686A8007F5D50120D9
:101B700001F0AEFD0FE0C0F80090FFF745FD06460E
:101B800006E0FFF741FD801B022801D9032036E75C
:101B9000686A8007F5D42078400773D50026E86985
:101BA000C00008D4E86940F08050E861E86900F0BE
:101BB000805000900126DFF89CB1DBF80000C005E2
:101BC00014D4DBF8000040F48070CBF80000FFF77D
:101BD0001BFD074606E0FFF717FDC01B642801D96F
:101BE00003200CE7DBF80000C005F4D5E06801280D
:101BF00012D0B0B105281DD0286A20F0010028625B
:101C0000286A20F004002862E06841F2883B28B38B
:101C1000FFF7FAFC07461DE0286A40F00100286241
:101C2000F2E7286A20F001002862286A20F0040008
:101C30002862E9E7286A40F004002862286A40F038
:101C400001002862E0E7FFF7DFFCC01B584501D91F
:101C50000320D4E6286A8007F5D50DE0FFF7D4FC11
:101C6000074606E0FFF7D0FCC01B584501D903200A
:101C7000C5E6286A8007F5D4012E03D1E86920F073
:101C80008050E861E069A0B36968C1F3810102296D
:101C900046D0022805D0C8F86090FFF7B5FC04468E
:101CA0003AE0C8F86090FFF7AFFC064606E0FFF7A1
:101CB000ABFC801B022801D90320A0E62868800124
:101CC000F5D4206AB0F5803F05D16868A16820F49A
:101CD000003008436860D4E908010843696821F4CA
:101CE000741108436860C8F860A0FFF78DFC0446D3
:101CF00007E026E0FFF788FC001B022801D903203B
:101D00007DE628688001F5D51BE0FFF77DFC001B10
:101D1000022801D9032072E628688001F5D410E07A
:101D200001280CD06868226A00F48031914204D105
:101D3000616A00F47010884203D001205FE6012040
:101D40005DE600205BE60000001002400000424219
:101D500080044242007000407047704770B590F8B0
:101D60003C20012A19D0012600F83C6F0222427063
:101D700050F83C2C5468936824F070050C682C4390
:101D800023F0800349681943546050F83C2C91605B
:101D9000467000210170002070BD022070BD10B59A
:101DA0000446002C03D094F83D0010B107E0012058
:101DB00010BD002084F83C00204600F00DF8022001
:101DC00084F83D00211D206801F0E4FE012084F824
:101DD0003D00002010BD000000B585B0002101913C
:101DE0000291039104910068364A374990421FD10D
:101DF000886940F400608861886900F400600090A0
:101E0000886940F004008861886900F0040000904F
:101E10008815019001A92D48FFF7DEFA0022042160
:101E20001B20FFF77DFC1B20FFF76CFC05B000BDFD
:101E3000274A904210D1C86940F00200C861C869C1
:101E400000F002000090002205211D20FFF768FC31
:101E50001D20FFF757FCE9E71E4A904210D1C869E0
:101E600040F01000C861C86900F010000090002226
:101E700005213620FFF754FC3620FFF743FCD5E759
:101E8000154A9042D2D1886940F40050886188692F
:101E900000F400500090886940F010008861886963
:101EA00000F0100000904020019001A90B48FFF7BE
:101EB00093FA002204212E20FFF732FC2E20FFF798
:101EC00021FCB3E7002C0140001002400008014053
:101ED00000040040001000400034014000100140A8
:101EE0000168CA6842F00102CA600068816801F0B6
:101EF0000701062903D0016841F0010101600020BB
:101F0000704770B5044694F83C00012817D00125AD
:101F100084F83C50022084F83D002068826822F05A
:101F2000770222F47F4282600868502831D00DDCAD
:101F300020284DD005DCB0B310284ED148E0022057
:101F400070BD302844D0402847D137E060282BD0DE
:101F5000702806D0B0F5805F3FD0B0F5005F3CD16F
:101F60000BE0CB68D1E90121206801F068FE206810
:101F7000816841F0770181602FE0CB68D1E90121D0
:101F8000206801F05CFE2068816841F48041816036
:101F900023E0CA684968206801F034FF50212068B6
:101FA00001F057FE19E013E0CA684968206801F0A3
:101FB00071FF6021206801F04CFE0EE0CA6849689C
:101FC000206801F01FFF4021206801F042FE04E07C
:101FD00022680146104601F03CFE3C34657000204A
:101FE000207070BD01F01CB970B504460D4694F820
:101FF0003C00012820D0012684F83C60022084F8AF
:102000003D00DAB1042A2AD0082A3AD0D5E90012D4
:10201000EB68206801F084FF2068C16921F4406109
:10202000C1612068C169AA6841EA0221C1613C34EA
:1020300066700020207070BD022070BDD5E90012CE
:10204000EB68206801F0F0FE2068816921F00C0146
:10205000816120688169AA6811438161E7E7D5E958
:102060000012EB68206801F027FF2068816921F4E5
:102070004061816120688169AA6841EA0221816129
:10208000D5E7D5E90012EB68206801F030FF206841
:10209000C16921F00C01C1612068C169AA681143BE
:1020A000C161C4E710B50446002C03D094F83D008C
:1020B00010B107E0012010BD002084F83C0020464C
:1020C00000F00CF8022084F83D00211D206801F08A
:1020D00061FD012084F83D00002010BD704710B55F
:1020E00004460029226806D0042909D008290CD00A
:1020F0000C2913D10EE0D06840F00200D0600DE052
:10210000D06840F00400D06008E0D06840F00800DB
:10211000D06003E0D06840F01000D0600122206859
:1021200001F080FD2068816801F00701062903D0D5
:10213000016841F001010160002010BD70B5044646
:10214000206801694FF00005C943890716D4C168AA
:10215000C943890712D4E91E016101202077206854
:102160008069800703D02046FFF73CFF05E020464A
:1021700000F0CCF8204600F054F92577206801697A
:10218000C943490718D4C168C943490714D46FF03B
:1021900004010161022020772068806910F4407FEB
:1021A00003D02046FFF71EFF05E0204600F0AEF802
:1021B000204600F036F9257720680169C9430907F0
:1021C00017D4C168C943090713D46FF0080101612E
:1021D000042020772068C069800703D02046FFF7DD
:1021E00001FF05E0204600F091F8204600F019F9C3
:1021F000257720680169C943C90618D4C168C94355
:10220000C90614D46FF010010161082020772068FE
:10221000C06910F4407F03D02046FFF7E3FE05E0DD
:10222000204600F073F8204600F0FBF82577206880
:102230000169C943C90708D1C168C943C90704D1A5
:10224000891E0161204600F0EDF820680169C9434C
:10225000090609D4C168C943090605D46FF0800195
:1022600001612046FFF778FD20680169C9434906EE
:1022700009D4C168C943490605D46FF04001016122
:10228000204600F0F5F820680169C94389060BD49F
:10229000C168C943890607D46FF020010161204657
:1022A000BDE87040FFF759BD70BD000000B585B0B6
:1022B0000021019102910391049100680F49884225
:1022C0001AD10F48816941F008018161806900F0ED
:1022D000080000901020019002200290049001A9B3
:1022E0000848FFF779F80849486820F4406040F052
:1022F000E06040F40060486005B000BD00040040AC
:1023000000100240000C014000000140704770B511
:1023100004460D4694F83C0001280DD0012684F8AF
:102320003C60022084F83D0042B1042A1AD0082AF9
:102330002DD00C2A53D13EE0022070BD29462068E2
:1023400001F090FC2068816941F0080181612068FA
:10235000816921F004018161206881692A69114342
:1023600081613CE02946206801F0B0FC2068816969
:1023700041F4006181612068816921F4806181619B
:10238000206881692A6941EA0221816127E02946A2
:10239000206801F0D5FC2068C16941F00801C161E5
:1023A0002068C16921F00401C1612068C1692A69FE
:1023B0001143C16113E02946206801F0F9FC20684F
:1023C000C16941F40061C1612068C16921F4806183
:1023D000C1612068C1692A6941EA0221C1613C34B6
:1023E00066700020207070BD10B50446002C03D02C
:1023F00094F83D0010B107E0012010BD002084F8E2
:102400003C00204600F00CF8022084F83D00211D1D
:10241000206801F0BFFB012084F83D00002010BDC2
:102420007047704710B504460D492068884201D1B5
:10243000FFF7F0F80B49206888420FD10A48612164
:10244000017062214170632181706421C170014675
:10245000BDE810400422054800F068BA10BD000035
:1024600000080040001000401E0000203807002037
:10247000704710B5044620684169C1F3C01194F853
:102480003920212A0BD151B1416921F080014161EC
:10249000206B08B1FEF7F9FC204601F04EFE2068E3
:1024A0004169C1F3801194F83A20222A0BD151B12D
:1024B000416921F040014161606B08B1FEF7E5FC24
:1024C000204601F01FFE002010BD704770B5044685
:1024D00022681068D168526900F00F03002B08D100
:1024E000850606D58D0604D52046BDE8704001F06E
:1024F0002DBE002B5ED002F0010301F490752B433A
:1025000058D0C30705D0CB0503D5E36B43F00103D7
:10251000E363430705D5D30703D0E36B43F002031E
:10252000E363830705D5D30703D0E36B43F00403CC
:10253000E363030705D5D20703D0E26B42F008023C
:10254000E263E26B002A2AD0800604D5880602D511
:10255000204601F0FBFD20684069C0F38010E16B6C
:10256000090700D400B3204601F0CCFD2068416982
:10257000490615D5416921F040014161606B58B1B0
:1025800015494163606BFEF7A3FC002807D0606B20
:10259000416BBDE8704008472046FFF796FF70BDCD
:1025A0002046FFF792FF70BD2046FFF78EFF002008
:1025B000E06370BD020606D50A0604D52046BDE8D4
:1025C000704001F09BBE4006F3D54806F1D5204689
:1025D000BDE8704001F0A4BD2D40000870B5044670
:1025E000002C04D094F83900002510B106E0012039
:1025F00070BD84F83850204600F022F8242084F87A
:1026000039002068C16821F40051C160204601F002
:10261000EBFD2068016921F4904101612068416966
:1026200021F02A0141612068C16841F40051C16074
:10263000E563202084F8390084F83A00002070BD5A
:102640002DE9F04385B004460025019502950395D8
:102650000495DFF814C22168844802220323844EC3
:1026600080274FF480694FF01008614551D181698E
:1026700041F480418161816901F480410091816967
:1026800041F004018161806900F0040000901002B3
:1026900001900292049301A93046FEF79DFECDF809
:1026A00004900295039501A93046FEF795FE724EFF
:1026B000704830607560B560F76035617561B5610F
:1026C000F5613046FEF7FCFD08B1FEF7C9FA666316
:1026D00074626848684E143844363060C6F8048026
:1026E000B560F76035617561B561F5613046FEF73B
:1026F000E7FD08B1FEF7B4FA2663746200220521F3
:102700002520FFF70DF82520FEF7FCFF05B0BDE8FA
:10271000F083DFF868C1614551D1C16941F40031EE
:10272000C161C16901F400310091816941F0040186
:102730008161806900F00400009004200190029201
:10274000049301A93046FEF747FE08200190029548
:10275000039501A93046FEF73FFE4648464E143029
:10276000883630607560B560F76035617561B56158
:10277000F5613046FEF7A4FD08B1FEF771FA666315
:1027800074623C483C4E2830CC363060C6F8048039
:10279000B560F76035617561B561F5613046FEF78A
:1027A0008FFD08B1FEF75CFA2663746200220521F2
:1027B0002620FEF7B5FF2620FEF7A4FFA6E7304E41
:1027C000B142A3D1C16941F48021C161C16901F461
:1027D00080210091816941F008018161806900F0E8
:1027E00008000090CDF8049002920493254E01A9B0
:1027F0003046FEF7F1FDF01401900295039501A912
:102800003046FEF7E9FD1B481F4E283830607560E2
:10281000B560F76035617561B561F5613046FEF709
:102820004FFD08B1FEF71CFA666374621148164E3C
:102830003C3844363060C6F80480B560F7603561D6
:102840007561B561F5613046FEF73AFD08B1FEF7F6
:1028500007FA26637462002205212720FEF760FF35
:102860002720FEF74FFF51E70038014000100240DB
:102870000008014058000240F807002000440040D2
:1028800000480040000C01400809002037B582B024
:102890000446134694F83A00202802D0022005B0DE
:1028A00030BD039AA2B39BB394F83800012832D00C
:1028B000012084F83800A262A3850025E563222068
:1028C00084F83A00616B15488862616B1448C862ED
:1028D000616B14480863606B45632168606B091D78
:1028E000FEF72EFD206801684168019184F8385098
:1028F000C16841F48071C1602068416941F0010103
:1029000041612068416941F0400141610020C6E712
:10291000FFE70120C3E70220C1E70000874000086D
:10292000C34000083D40000870477047F7B50446B3
:1029300094F83900202801D00220FEBD019979B316
:1029400072B394F8380001282DD0012084F83800A3
:102950002162A284E2840025E563212084F8390005
:10296000236B12489862236B1148D862236B11487D
:102970001863206B456320681346001D266B0246D2
:102980003046FEF7DDFC21686FF04000086084F8F7
:1029900038502068416941F0800141610020FEBD4E
:1029A000FFE70120FBE70220F9E70000CD40000827
:1029B000FB4000083D40000870477047FEE70000FC
:1029C000032202490248FFF7B1BF000016000020B1
:1029D000780700202DE9F041044621297ED1207896
:1029E00055287BD1E07A552878D1A07D552875D11E
:1029F00000210020225C1144C9B2401CC0B20A2848
:102A0000F8D3A07A644D6FF00E0688423ED160780C
:102A100051283BD1A078E17840EA012000B2FDF7CF
:102A2000AAFE3246FDF782FE0422FDF77FFE5B4FD1
:102A3000DFF86C813A464346FDF797FDC5E9000192
:102A40002079617940EA012000B2FDF794FE324618
:102A5000FDF76CFE0422FDF769FE3A464346FDF79A
:102A600084FDC5E90201A079E17940EA012000B2C4
:102A7000FDF781FE3246FDF759FE0422FDF756FEB2
:102A80003A464346FDF771FDC5E9040100210B20DC
:102A9000225C1144C9B2401CC0B21528F8D3607D35
:102AA000884235D1207B522832D1607BA17B40EA1D
:102AB000012000B2FDF75FFE3246FDF737FE394FC9
:102AC00000223B46FDF751FDC5E90601E07B217C74
:102AD00040EA012000B2FDF74EFE00E059E0324628
:102AE000FDF724FE00223B46FDF73FFDC5E9080146
:102AF000607CA17C40EA012000B2FDF73CFE32463A
:102B0000FDF714FE00223B46FDF72FFDC5E90A0143
:102B100000211620225C1144C9B2401CC0B22028FA
:102B2000F8D394F82000884233D1E07D532830D187
:102B3000207E617E40EA012000B2FDF71CFE324695
:102B4000FDF7F4FD184F00223B46FDF70EFDC5E9E9
:102B50000C01A07EE17E40EA012000B2FDF70BFEF1
:102B60003246FDF7E3FD00223B46FDF7FEFCC5E9DA
:102B70000E01207F617F40EA012000B2FDF7FBFDDE
:102B80003246FDF7D3FD00223B46FDF7EEFCC5E9DA
:102B90001001BDE8F0810000500100209A99999938
:102BA0009999234000409F400080664010B50C4931
:102BB0000A4A0A60486000208860C86008610C22E8
:102BC0004A618861C8610846FFF708FD002803D004
:102BD000BDE81040FEF744B810BD000000480040BA
:102BE000B80700201CB50024009401940F490E483A
:102BF00008600846FEF7C9F808B1FEF731F80094FE
:102C000002200190002269460848FEF797F808B1B3
:102C1000FEF726F8102269460448FEF78FF80028D0
:102C200001D0FEF71DF81CBD0074004024060020F2
:102C300008B51D48416941F001014161406900F05A
:102C400001000090002205210C20FEF769FD0C20F8
:102C5000FEF758FD002205210D20FEF761FD0D2035
:102C6000FEF750FD002205210E20FEF759FD0E2033
:102C7000FEF748FD002205210F20FEF751FD0F2031
:102C8000FEF740FD002205211020FEF749FD10202F
:102C9000FEF738FD002205211120FEF741FDBDE8B9
:102CA00008401120FEF72EBD0010024010B594B070
:102CB000142216490FA8FDF7B3FA00210FA801F05E
:102CC000ECFF134CE0601422104914310AA8FDF700
:102CD000A7FA00210AA801F0E0FF606014220B4966
:102CE000283105A8FDF79CFA002105A801F0D5FFC1
:102CF0002060142205493C316846FDF791FA002115
:102D0000684601F0CAFFA06014B010BD045D000861
:102D1000240000202DE9F04F85B000240194029496
:102D2000039404943A48816941F0100181618169FA
:102D300001F010010091816941F004018161816914
:102D400001F004010091816941F0400181618169D4
:102D500001F040010091816941F0080181618069C1
:102D600000F008000090DFF8AC904FF4CA75002224
:102D700029464846FEF741FCDFF89CA04FF48057F7
:102D8000002239465046FEF738FCDFF890B04FF489
:102D9000C058002241465846FEF72FFC01950126F7
:102DA000029603940225049501A94846FEF714FBF8
:102DB0008020019002940394DFF8649001A94846B2
:102DC000FEF70AFB4FF4FE4001900294039501A91F
:102DD0004846FEF701FB019702960394049501A96A
:102DE0005046FEF7F9FA280301900294039501A9D1
:102DF0005046FEF7F1FACDF804800296039404954C
:102E000001A95846FEF7E8FA05B0BDE8F08F0000CA
:102E10000010024000100140000C01400008014079
:102E20000018014010B58AB0002406940794089455
:102E300009940494059400940194029403941E4808
:102E40001C49016040F2CF21416084604FF6FF7160
:102E5000C160046144618461FEF7A1FF08B1FDF720
:102E6000FFFE4FF48050069006A91348FFF749F87B
:102E700008B1FDF7F5FE1048FFF714F908B1FDF7AA
:102E8000EFFE0494059404A90B48FEF767FF08B110
:102E9000FDF7E6FE009401200190029403940022C5
:102EA00069460548FFF7A0F8002801D0FDF7D8FED5
:102EB0000AB010BD002C01403806002010B58EB0BD
:102EC00000240A940B940C940D94089409941C21EA
:102ED00001A8FDF7BEF91E481C4901604721416069
:102EE0008460C721C16004618461FEF758FF08B1A6
:102EF000FDF7B6FE4FF480500A900AA91448FFF778
:102F000000F808B1FDF7ACFE1148FFF76DFA08B103
:102F1000FDF7A6FE0894099408A90D48FEF71EFFC8
:102F200008B1FDF79DFE602001906320029003949C
:102F30000594002201A90648FFF7E9F908B1FDF759
:102F40008FFE0348FFF7B2F90EB010BD0004004039
:102F5000780600201CB50024009401940E480D4909
:102F6000016041F61F414160846042F20F71C1600F
:102F70008461FEF714FF08B1FDF772FE009401941E
:102F800069460548FEF7EAFE002801D0FDF768FE15
:102F90001CBD000000100040B806002010B58AB02B
:102FA00000240694079408940994049405940094CA
:102FB0000194029403941E481C49016040F2CF2101
:102FC000416084604FF6FF71C160046144618461B7
:102FD000FEF7E5FE08B1FDF743FE4FF48050069082
:102FE00006A91348FEF78DFF08B1FDF739FE10481A
:102FF000FFF758F808B1FDF733FE0494059404A9CF
:103000000B48FEF7ABFE08B1FDF72AFE0094012045
:10301000019002940394002269460548FEF7E4FFFC
:10302000002801D0FDF71CFE0AB010BD003401409D
:10303000F806002010B50C480A4901604FF4E13150
:10304000416000218160C16001610C2242618161A7
:10305000C161FFF7C3FA002803D0BDE81040FDF7B7
:10306000FFBD10BD003801403807002010B50C48E6
:103070000A4901604FF4E131416000218160C16083
:1030800001610C2242618161C161FFF7A7FA00284A
:1030900003D0BDE81040FDF7E3BD10BD0044004083
:1030A0007807002010B50C480A4901600B494160BF
:1030B00000218160C16001610C2242618161C161B6
:1030C000FFF78CFA002803D0BDE81040FDF7C8BD1B
:1030D00010BD000000480040B8070020C8DC050013
:1030E000FEE701210170818D806A0022FEF785BA1A
:1030F000FF210170818D806A0122FEF77EBA0000F7
:1031000070B538211F48FDF7A4F81E483821383023
:103110000646FDF79EF81B491B4C0C62E0148884A0
:103120001A4A8A628020888501230B700020086378
:10313000184D1748C1E904058C659014A1F85C008E
:103140000A660011A1F8640081F838301020886602
:103150000F4A2846C1E91220084600F05CF83046C4
:1031600000F059F80748FFF7BCFF3046FFF7B9FFFA
:103170000021044800F010F83046BDE870400021FE
:1031800000F00AB8B0010020000801400010014022
:10319000D7D6D6D6D6D6D63F70B505460C461948F2
:1031A000844201DC044604E040F6FF70844200DB08
:1031B0000446686B00B10CB120B107E0284600F06E
:1031C0002AF803E014B1284600F020F8686B0028C4
:1031D00005DB002C03DA2846FFF78AFF06E000280B
:1031E00004DC002C02DD2846FFF77BFF002C00DC0E
:1031F00064422346296BBDE8704000220248FDF777
:1032000005BE000001F0FFFF24060020818C006A4B
:103210000122FEF7F2B9818C006A0022FEF7EDB9B7
:10322000144B0168144A994210D1007F012809D13A
:10323000104692F900104068012904D0491C01D1C0
:10324000401E50607047401C506070470B4B9942C5
:10325000FBD1007F0128F8D1074892F93810C06BE4
:10326000012904D0491CF0D1401ED0637047401C96
:10327000D0637047002C0140B001002000340140B1
:1032800003460DE002782A2A03D0202A01D37A2AA5
:1032900001D9FF2070472C2A01D1491EC9B2401C18
:1032A0000029EFD1C01AC0B27047000038B50546FA
:1032B000084614A1FCF7D8FF044606212046FFF774
:1032C000DFFFFF2805D02044694600F06BF985F840
:1032D0008B0007212046FFF7D3FFFF2805D02044AD
:1032E000694600F05FF985F88C0009212046FFF758
:1032F000C7FFFF2805D02044694600F053F9C5F800
:10330000A00038BD24474E4747410000F8B50646A7
:10331000084624A1FCF7A8FF054602212846FFF72E
:10332000AFFFFF2805D02844694600F03BF986F836
:1033300099000024E01CC1B22846FFF7A1FFFF2836
:103340000AD02844694600F02DF9311981F88D0022
:10335000641CE4B20C2CEDD30F212846FFF790FF3C
:10336000FF2805D02844694600F01CF9A6F89A0009
:1033700010212846FFF784FFFF2805D0284469461E
:1033800000F010F9A6F89C0011212846FFF778FFFD
:10339000FF2805D02844694600F004F9A6F89E00ED
:1033A000F8BD000024474E47534100002DE9F84F77
:1033B00004460846904674A1FCF756FF05460121D5
:1033C0002846FFF75DFF642642F21077FF281CD0E5
:1033D0002844694600F0E6F881469DF800100A206E
:1033E00000F0D8F8B9FBF0F0B0FBF7F104F87E1F5D
:1033F000B0FBF6F1B1FBF6F206FB12116170B0FB07
:10340000F6F106FB1100A0707E3C03212846FFF771
:1034100037FFDFF87C91FF283ED02844694600F052
:10342000C1F882469DF80000801CC1B20A2000F05D
:10343000B1F8BAFBF0F044F8810F9DF80000801C51
:10344000C1B20A2000F0A6F80146BAFBF1F200FB77
:1034500012A0FDF78BF982469DF80000C0F106002E
:10346000C1B20A2000F096F8FDF780F95146FCF74A
:1034700065FF4946FCF794FF824606210A2000F0CA
:1034800089F821684843FDF771F95146FCF7FEFEC3
:10349000FDF79BF944F8810904212846FFF7F0FE67
:1034A000FF2802D0285C84F8850005212846FFF714
:1034B000E7FEFF2841D02844694600F073F88246B1
:1034C0009DF80000801CC1B20A2000F063F8BAFB2E
:1034D000F0F044F8860F9DF80000801CC1B20A206D
:1034E00000F058F80146BAFBF1F200FB12A0FDF71C
:1034F0003DF982469DF80000C0F10600C1B20A20E5
:1035000000F048F8FDF732F95146FCF717FF49463D
:10351000FCF746FF814606210A2000F03BF82168AF
:103520004843FDF723F94946FCF7B0FEFDF74DF996
:1035300044F88609012088F8000006212846FFF794
:103540009FFEFF2802D0285C84F88A0009212846C3
:10355000FFF796FEFF2815D02844694600F022F8B0
:10356000B0FBF7F17A34E170B0FBF6F1B1FBF6F2A3
:1035700006FB1211A170B0FBF6F106FB110000F57D
:10358000FA602080BDE8F88F24474E524D4300007A
:10359000000070420346012000E05843491EC9B2B2
:1035A000FBD270472DE9F04F80468B4644464FF0E2
:1035B0000009CA4600270025002620782D2802D1C0
:1035C00046F00206641C20782C2808D02A2806D051
:1035D0002E280AD030380A280AD300270025B00741
:1035E00001D508F10108002418E046F00106641C2A
:1035F000F00702D06D1CEDB201E07F1CFFB2641C2D
:10360000DBE7381B401EC1B20A20FFF7C3FF18F8E2
:103610000410303900FB0199641CE4B2BC42F0D3C1
:10362000052D00D905258BF8005000240DE0281B3E
:10363000401EC1B20A20FFF7ADFF39194144497855
:10364000303900FB01AA641CE4B2AC42EFD3294636
:103650000A20FFF79FFF09FB00A0B10700D54042F9
:10366000BDE8F08F70477FB503460C46164606F15D
:10367000080085B2A5202070A4F801509DF80C0028
:10368000E07032461946201DFCF7CAFD291F20466E
:10369000FDF7A4F9A11948607FBD2DE9F041074667
:1036A000884616461D4632212846FCF7D2FD08F111
:1036B00008010CB2322C03DD4FF0FF30BDE8F08181
:1036C0003346424629463846FFF7CDFF2046F5E708
:1036D00008B507494FF4FA520968B1FBF2F14143CA
:1036E000009100BF0098411E0091FAD208BD000071
:1036F000400000202DE9F84381460E4600270025B2
:10370000002432212E48FCF7A4FD002E13D0DFF850
:10371000B0800DE038467F1C19F80020BFB265B1BB
:10372000012D15D0022D1CD0032D2CD000250024F6
:10373000761EB6B2EED2BDE8F883A52A01D00024E9
:10374000F6E72046641CA4B208F800200125EFE744
:10375000ADF801202046641CA4B208F80020022520
:10376000E6E7BDF8010040EA0220ADF8010021467D
:10377000641CA4B208F80120322801D20325D7E73F
:1037800000250024D4E7BDF80110A14206D9204647
:1037900004F10104A4B208F8002003E002D24FF0C3
:1037A00000052C46A142C3D1002500240448FDF7A2
:1037B0002FF90028BCD00248FDF76CF9B8E70000EB
:1037C0002A0200201CB5314D6E46314F4FF48078EF
:1037D0004FF400794FF4806A4FF4006B1DE015F848
:1037E0001400012809D005EB44004078012804D1D9
:1037F000305D012801D1601C0870641CE4B2082C03
:10380000EDD3002005EB40014A7805F81020325C2A
:103810004A70401CC0B20828F4D300240A2001F0EA
:103820002FFA80213846FDF7E1FE8DF80000414671
:103830003846FDF7DBFE8DF8010049463846FDF7B6
:10384000D5FE8DF8020051463846FDF7CFFE8DF8C3
:10385000030059463846FDF7C9FE8DF804004FF4C1
:1038600080513846FDF7C2FE8DF805004FF4005137
:103870003846FDF7BBFE8DF806004FF48041384610
:10388000FDF7B4FE8DF807000249A8E7A800002064
:10389000001801401400002070B500240025124ECD
:1038A00004E0641CA4B20520FDF784FD707808B91B
:1038B000642CF6D3642C12D2708800210B4B06E0E6
:1038C0005A5C832A05D0842A07D0491C89B28142D8
:1038D000F6D3814204D1022502E00325F9E7012550
:1038E00000207070284670BD1A000020EC030020F4
:1038F00010B5044611484AF2A01101804FF48061CE
:103900004180052101710021417184710121C17142
:1039100084F00401017240F60D21A0F809100B217A
:1039200000F064F8C820FDF745FD054850F8240074
:10393000FFF73CF9BDE81040FFF7AEBF5C02002086
:10394000E05C000810B501460C484AF2A012028063
:103950004FF4407242800E22027141710121817147
:10396000417981F00F01C17140F60D2101810A21D9
:1039700000F03CF8BDE81040FFF78EBF5C0200206D
:1039800010B5014618484FF47F4202EA11224FF465
:103990007F0342EA116203EA01231A4342EA01610A
:1039A0004AF2A01202804FF4E06242806522027166
:1039B00001224271C0F806108272D0F806100A0C7B
:1039C00082EA116282F0640282EA11224A4082F0A5
:1039D0000101C17240F60D2181810E2100F006F82F
:1039E000BDE81040FFF758BF5C0200200A460249BC
:1039F0000248FEF79BBF00005C020020B8070020D1
:103A00004FF47A74204601F03BF9FBE710B55020E3
:103A100080F31188BFF34F8FBFF36F8F01F094FDD8
:103A200018B104494FF080500860002080F31188DD
:103A300010BD000004ED00E010B532221649174811
:103A4000FEF724FF15480068C16841F01001C1600D
:103A50001149322264311248FEF718FF10480068FD
:103A6000C16841F01001C1604FF4C8720D490E48A1
:103A7000FEF70CFF0C480068C16841F01001C160FE
:103A8000FEF79EFF09480078002803D0BDE81040EB
:103A9000FDF7FAB810BD0000B8000020380700207C
:103AA00078070020EC030020B80700201500002054
:103AB00030B58FB0282105A8FCF7CBFB1421684650
:103AC000FCF7C7FB01210591080406900024079428
:103AD000099102250C950D904FF4E0100E9005A869
:103AE000FDF778FF08B1FDF7BBF80F2000900195B6
:103AF00002944FF480600390049402216846FDF71D
:103B000041FE002801D0FDF7ABF80FB030BD00003A
:103B10000D48016841F00101016041680B4A114004
:103B2000416001680A4A11400160016821F4802166
:103B30000160416821F4FE0141604FF41F01816082
:103B40000449C00308607047001002400000FFF8FD
:103B5000FFFFF6FE08ED00E00148FEF7EFBA0000B7
:103B6000380600200148FEF7E9BA00007806002078
:103B70000148FEF7E3BA0000900900200148FEF773
:103B8000DDBA0000B80600200148FEF7D7BA0000F1
:103B9000F80600202DE9F04102681D4D1D4E1E4F14
:103BA000DFF878C01E4B4FF08048A84209D09842F9
:103BB00007D0404505D0B04203D0B84201D060459F
:103BC00003D122F070044A682243A84209D09842E7
:103BD00007D0404505D0B04203D0B84201D060457F
:103BE00003D122F44074CA6822434C6922F0800257
:103BF000224302608A68C2620A688262A84201D0D7
:103C0000984201D10969016301214161BDE8F08158
:103C1000002C01400004004000080040000C00405F
:103C20000034014010B501F01F0101238B40046AEC
:103C30009C430462036A8A401343036210BD10B5BB
:103C4000846824F47F4442EA03220A4322438260C8
:103C500010BD826822F070020A4342F007018160C1
:103C600070470000F0B5026A22F001020262026AA7
:103C70004368846924F0700424F003050C682C4325
:103C800022F002058A682A430E4E0F4FB04201D03F
:103C9000B84205D122F00805CA682A4322F004027E
:103CA000B04201D0B84207D123F4807323F40073EB
:103CB0004D691D438B692B434360846149684163AF
:103CC0000262F0BD002C014000340140F0B5026AF0
:103CD00022F010020262036A4268846924F4E0441C
:103CE00024F440740D6844EA052423F020038D6811
:103CF00043EA0513104D114EA84201D0B04206D13F
:103D000023F08003CF6843EA071323F04003A8425F
:103D100001D0B04209D122F4806222F400624D69E0
:103D200042EA85028D6942EA8502426084614968FF
:103D300081630362F0BD0000002C014000340140AB
:103D4000F0B5026A22F480720262026A4368C469B2
:103D500024F0700424F003050C682C4322F4007254
:103D60008D6842EA0522104D104EA84201D0B042A3
:103D700006D122F40062CF6842EA072222F4806270
:103D8000A84201D0B04209D123F4805323F4005358
:103D90004D6943EA05138D6943EA05134360C46125
:103DA0004968C1630262F0BD002C0140003401404B
:103DB00030B5026A22F480520262046A4268C36922
:103DC00023F4E04323F440730D6843EA052324F40D
:103DD00000548D6844EA0534084DA84202D0084DCD
:103DE000A84204D122F480424D6942EA8512426021
:103DF000C36149680164046230BD0000002C0140C9
:103E00000034014010B5036A046A24F0010404621E
:103E1000846924F0F00444EA021423F00A020A43FD
:103E20008461026210BD000070B5046A24F00104D0
:103E300004628469056A124EB0420ED0114EB0423F
:103E40000BD0B0F1804F08D00F4EB04205D00F4ECE
:103E5000B04202D00E4EB04203D124F0030414430A
:103E600001E044F0010424F0F0041A0744EA12626D
:103E700025F00A0301F00A0119438261016270BD55
:103E8000002C0140003401400004004000080040C4
:103E9000000C004010B5036A23F01003036284692C
:103EA000036A24F4704444EA023223F0A00343EA94
:103EB00001118261016210BD30B5046A24F0100462
:103EC00004628569046A25F4407545EA022222F4F9
:103ED00070454FF6FF7202EA03322A4324F0A00332
:103EE000A02404EA011119438261016230BD30B59A
:103EF000046A24F480740462C469056A24F003042B
:103F0000144324F0F0041A0744EA126225F4007303
:103F10004FF4007404EA01211943C261016230BD0B
:103F200030B5046A24F480540462C569046A25F437
:103F3000407545EA022222F470454FF6FF7202EA0C
:103F400003322A4324F400534FF4005404EA0131AD
:103F50001943C261016230BD3EB50446D4E9000197
:103F6000FCF747FCCDF80200D4E90201FCF741FC64
:103F7000CDF80600D4E9040100220A4BFCF7F5FA5B
:103F8000FCF737FCADF80000074B01220A21684618
:103F9000FFF783FB82B2002A03D003490348FEF7F0
:103FA000C5FC3EBD00002440EA0000203807002088
:103FB0001FB51B4991F89900032829D000208DF8DE
:103FC0000A00174891F88520D0F881004E2A23D0A6
:103FD00040420090124891F88A20D0F88600452A85
:103FE0001CD0404201909A31C888ADF8080008887A
:103FF000ADF80B000B4B07220D216846FFF74DFB78
:1040000082B2002A03D007490748FEF78FFC1FBD84
:1040100001208DF80A00D4E70090DBE70190E2E789
:104020007C050020EA0000203807002010B5406A17
:104030000021C185C184FEF748FA10BD70B5446AFD
:1040400020684069C0F3C01094F839100025212978
:1040500004D118B1E584204600F06FF8206840696B
:10406000C0F3801094F83A10222904D118B1E585E4
:10407000204600F047F8E06B40F01000E063204677
:10408000FEF723FA70BD10B50146486A0968096851
:10409000890613D40021C1850168CA6822F48072A0
:1040A000CA6001684A6922F001024A6101684A69EE
:1040B00022F040024A61202180F83A10FEF734FCD9
:1040C00010BD10B5406AFEF730FC10BD10B50146BA
:1040D000486A0968096889060CD40021C18401680E
:1040E0004A6922F080024A610068C16841F04001DB
:1040F000C16010BDFEF760FC10BD10B5406AFEF750
:104100005CFC10BD0168CA6822F49072CA60016844
:104110004A6922F001024A61202180F83A10704772
:1041200010B50168CA6822F04002CA60202180F8F8
:104130003910FEF741FC002010BD0168CA6822F06A
:10414000C002CA60202180F83910704710B590F87D
:104150003A10222901D0022010BD8168B1F5805F9C
:1041600011D0016919B30168496801F07F03816AC0
:104170004A1C82620B70C18D491E0904090CC1855D
:104180001CD0002010BD816A02693AB102685268F1
:10419000D2B20A80816A491C8162ECE702685268E7
:1041A000C2F308020A80816A891C8162E3E7016820
:1041B0004A68816A4B1C83620A70DCE70168CA683E
:1041C00022F02002CA600168CA6822F48072CA60C4
:1041D00001684A6922F001024A61202180F83A1000
:1041E000FEF7A2FB002010BD2DE9F0410446206837
:1041F0000169E26821F4405111430161A16820691D
:104200000143606901432068C26841F20C639A432C
:104210000A43C26020684169A26921F440711143D8
:1042200041613549206864253226884232D1FDF744
:1042300087FB00EBC00101EB001061686FF018070D
:104240008900B0FBF1F2B2FBF5F2B0FBF1F37A4377
:1042500003EB8202B0FBF1F306EB0212B2FBF5F2C4
:10426000B3FBF5F302F0F00202EB0312B0FBF1F343
:10427000B0FBF1F0B0FBF5F0784303EB800006EB08
:104280000010B0FBF5F0216800F00F0010448860CA
:10429000BDE8F081FDF744FB00EBC00101EB00102D
:1042A00061686FF018078900B0FBF1F2B2FBF5F21C
:1042B000B0FBF1F37A4303EB8202B0FBF1F306EBC0
:1042C0000212B2FBF5F2B3FBF5F302F0F00202EBDF
:1042D0000312B0FBF1F3B0FBF1F0B0FBF5F0784363
:1042E00003EB800006EB0010B0FBF5F0216800F056
:1042F0000F0010448860CBE70038014090F8391077
:10430000212901D0022070478168B1F5805F0CD06F
:10431000016A4A1C0262026809785160C18C491E18
:104320000904090CC18410D019E0016A02680988E7
:10433000C1F308015160016919B1016A491C0162A8
:10434000ECE7016A891C0162E8E70168CA6822F0AB
:104350008002CA600068C16841F04001C16000206D
:104360007047000010B5044800F020F8BDE8104088
:104370000148FEF7ABB800003807002010B504482C
:1043800000F014F8BDE810400148FEF79FB80000A7
:104390007807002010B5044800F008F8BDE8104088
:1043A0000148FEF793B80000B807002038B504466E
:1043B00020680168C943C9064BD4002501684068DC
:1043C00000902046FEF755F82068C16821F01001E2
:1043D000C160606B006840681E498C420AD1C0F120
:1043E00032011D4800F042F832221B492046FEF7F8
:1043F0004DFA29E019498C420CD1C0F1320116481E
:104400006430FEF7E7FA1449322264312046FEF7A1
:104410003DFA19E012498C4216D1C0F5C8700095DA
:104420006946FCF75FFC9DF80000012806D10D48A5
:1044300090F89900032801D1FFF7BAFD4FF4C87234
:1044400009492046FEF722FA2068C16841F01001B0
:10445000C16038BD38070020B80000207807002070
:10446000B80700207C050020EC03002089B2FFF78C
:1044700041B9FEE7490050EAC12018BF04204A0DA7
:1044800018BF40F0010040F2FF72B2EB515F08BF6D
:1044900040F00200012808BF052070470907090EF7
:1044A000002804DB00F1E02080F80014704700F0E1
:1044B0000F0000F1E02080F8141D70472DE9F74F40
:1044C000144694B00021C4E902111599079121F016
:1044D0000045C9498D4206DC1599C4E9000117B0B1
:1044E0000020BDE8F08FC549DFF814A3A9423CDDE8
:1044F0000799C44E0029C44FC44A1599534619DD83
:10450000FCF72DF8554506D0C14AC24BFCF727F8F9
:10451000C4E900010AE04FF0D352BE4BFCF71FF88C
:1045200032463B46FCF71BF8C4E9000117B00120F6
:10453000BDE8F08FFBF772FF554506D0B44AB54B86
:10454000FBF76CFFC4E900010AE04FF0D352B14B16
:10455000FBF764FF32463B46FBF760FFC4E900010E
:1045600017B04FF0FF30BDE8F08FAB49A942159965
:1045700078DB21F0004183468846A84AA84BFBF728
:10458000F4FF0022A74BFBF749FFFCF732F9099033
:10459000FCF7F1F806460F469C4A5346FBF7E5FF49
:1045A00043465A46FBF7DEFF80468A46984A994BB7
:1045B00030463946FBF7D9FF2A0D01250B924246BA
:1045C0005346FBF7CFFF032DC4E9000139D00B9808
:1045D000C1F30A51401A05EB45111139814230DA15
:1045E0009148C346784400EB0510CDF80CA00C9020
:1045F000D0E9002330463946FBF7B7FF02460B46A9
:104600000491069058460399FBF7A9FF80468A4615
:1046100002460B4658460399FBF7A1FF049B069AF6
:10462000FBF79DFF83460C9803913946D0E902239E
:104630003046FBF79AFF5A46039BFBF790FF6D1C31
:10464000BDE707980028A2BF099817B0BDE8F08F12
:10465000616881F000416160099817B04042BDE88F
:10466000F08FFFE784461598C1F31301C0F30A5099
:10467000A0F2F5304FEA601800F01F06C6F12000E6
:10468000139000200690079041F4801E05206D468F
:1046900076B1664A08EB00017A4452F8213002EB09
:1046A0008101B3404A68139922FA01F1194305E0E8
:1046B0005F4908EB0002794451F82210A1FB0E2754
:1046C000A1FB0C131A449A4234BF0123002303EBCD
:1046D000070A05EB8003D3E901B70F448F4234BFCB
:1046E0000121002193448B4411B1934502D903E089
:1046F000934501D2012100E00021C3E901B75144F3
:1047000045F82010011EA0F10100C1DC0298059FB0
:1047100000F10050800F12900298DDE903568000EE
:10472000FCF729F8834628460D91FCF749F96FF00C
:104730001D02FBF7FBFFCDE90E013046FCF740F907
:104740006FF03D02FBF7F2FF80468A463846FCF7E1
:1047500037F96FF05D02FBF7E9FF07464246534623
:104760001191FBF75BFEDDE90E23FBF757FE5A467E
:104770000D9BFBF753FE00250E465A4628460D9B1F
:10478000FBF7EDFEDDE90E23FBF7E9FE424653465B
:10479000FBF7E5FE3A46119BFBF7E4FEDFF898A035
:1047A000244A5346FBF7E1FE07468846234A244B3A
:1047B00031462846FBF7D9FE3A464346FBF72EFE24
:1047C000074688464FF0A842534631462846FBF735
:1047D000CCFE3A464346FBF721FE159A12F0004FF5
:1047E00004D0129A81F0004152421292C4E90001B1
:1047F000129817B0BDE8F08FFB21E93F7CD9024049
:10480000FB21F93F7370032E8A19A33B000040542B
:104810003163621A61B4D03DFB21394183C8C96D4F
:10482000305FE43F0000E03FB8170000341700009D
:1048300016170000182D4454FB21F93D3326A6110C
:10484000460B113C2DE9FF4D21F0004807460C4670
:10485000B8F1795F08DAFBF7CCFF002801BF002030
:10486000324904B0BDE8F08D3A4623461046194659
:10487000FBF77BFE054602462D480E460B460621F9
:10488000784400F05DF82A463346FBF76EFEDDE91A
:10489000022382468B4638462146FBF766FE0446D5
:1048A0000F4652465B4628463146FBF75EFE2246DF
:1048B0003B46FBF754FE07468A464FF0FF32284638
:1048C0003146FBF733FF1B4A90450ADA3A46534616
:1048D000FBF745FE04B00022BDE8F04D134BFBF79B
:1048E00041BE154A4245A8BFA8F500154FF0000487
:1048F000B8BF124D22462B46FBF731FE06468846CE
:1049000022462B4600200949FBF729FE04460D46A6
:104910003A46534630464146FBF721FE04B0224654
:104920002B46BDE8F04DFBF71DBE00000000F03F38
:10493000EC1400003333D33F0000E93F0000D23FC6
:104940002DE9F0414F1E00EBC7010446D1E90001FB
:1049500015461E4637F006020DD02A463346FBF7B1
:1049600004FE7F1E04EBC703D3E90023FBF756FDCB
:1049700037F00602F1D1022F25D0042F13D0062FD5
:1049800018BFBDE8F0812A463346FBF7EEFDD4E9B7
:104990000A23FBF743FD2A463346FBF7E6FDD4E93D
:1049A0000823FBF73BFD2A463346FBF7DEFDD4E93F
:1049B0000623FBF733FD2A463346FBF7D6FDD4E941
:1049C0000423FBF72BFD2A463346FBF7CEFDD4E943
:1049D0000223FBF723FD2A463346FBF7C6FDD4E945
:1049E0000023BDE8F041FBF719BD00002DE9FF4DA4
:1049F000054621F0004084B00C46B0F1795F0BDA37
:104A00002846FFF737FD042808BF00F06FF8284656
:104A100008B02146BDE8F08D2A460B461046FBF74C
:104A2000A4FD06460F462A462346FBF79EFD804618
:104A300026488A4632463B4605217844FFF780FFE8
:104A400083461098029160B3214A224B404651465A
:104A5000FBF78BFDCDE900015A4640465146029BCB
:104A6000FBF783FD82468846DDE906014FF0FF3201
:104A7000FBF75CFE52464346FBF771FD32463B4670
:104A8000FBF773FDDDE90623FBF769FDDDE9002394
:104A9000FBF765FD08B02A462346BDE8F04DFBF75D
:104AA00061BD0B465A4630463946FBF75EFD084A63
:104AB000084BFBF7B3FC42465346FBF756FD08B0E4
:104AC0002A462346BDE8F04DFBF7A8BC2A14000097
:104AD000495555555555C5BF0122FBF727BE002244
:104AE000134610461146FBF7B2BD0000024A0020F3
:104AF0001107FBF71BBE000001FDFFFF02E008C825
:104B0000121F08C1002AFAD170477047002001E047
:104B100001C1121F002AFBD1704700000149086043
:104B200070470000A400002000B5244B21F0004293
:104B300087B09A42DCBF0022134629DD204B9A42FF
:104B400008D140B94FF00100FFF7E8FFFFF7C7FFBA
:104B500007B000BD03DBFFF7BFFF07B000BD02AA2F
:104B6000FFF7ACFC10F0030104BF0DF1080C9CE84A
:104B70000F000DD0012001290ED0022914D00DF113
:104B8000080C00909CE80F00FFF730FF07B000BD55
:104B9000FFF758FE07B000BD0DF1080C00909CE82F
:104BA0000F00FFF723FF05E00DF1080C9CE80F0054
:104BB000FFF748FE07B081F0004100BDFB21E93F4F
:104BC0000000F07FFCF72EFDFEF772FFFEF7A2F863
:104BD000FEF72EF8FEF772F9FEF724F9FEF702F859
:104BE000FEF7DCF9FEF726FAFEF740FAFEF75AFA6E
:104BF000FEF7B0F91A4C012211032046FCF7FDFC28
:104C00000A20FCF7D7FB61142046FCF7EFFC0128D3
:104C100001D11449087000211348FDF760FA002102
:104C20001248FDF75CFA00231A4619461048FCF7B3
:104C3000EDF800231A4610210D48FCF7E7F8002193
:104C40000B48FCF7F3F810210948FCF7EFF8FEF7E2
:104C5000F3FEFEF755FAFEF729F800F019F8FEE723
:104C6000000C01401500002038060020F806002046
:104C70002406002001460020842900D0C81C70476B
:104C800010B5002800D1012000F046FB002010BD27
:104C900010B500F069FB002010BD3EB504460D467E
:104CA000B4F90800FFF7E6FF02A9CDE90001208A68
:104CB0002B4682B2D4E9001000F016FC012801D086
:104CC00000203EBD02983EBD2DE9F04104460F464E
:104CD000174E75693068001D00F062FA38B9306807
:104CE00090F82C1001208840B1698143B161601CAB
:104CF00007D137B13168BDE8F041091D0D4800F01A
:104D000088BA2C4430684460AC4206D23168B0683E
:104D1000091DBDE8F04100F064BA31687068091DF2
:104D200000F05FFA306B844200D23463BDE8F0815A
:104D300044000020AC0A002070B5044600F076FA6A
:104D40001C4D2869401C2861286810B1E86938B1F9
:104D50000CE02C602869012808D100F0DBF805E0A0
:104D60002868E16AC06A884200D82C60E86A401C62
:104D7000E862E06A0121AA6981401143A9610E49F4
:104D800000EB800001EB8000211D00F042FA00F0F2
:104D90006DFAE86900280CD02868E16AC06A884288
:104DA00007D206494FF080500860BFF34F8FBFF322
:104DB0006F8F70BD44000020D009002004ED00E09A
:104DC00070B50C4D0C4E11E000F030FAF068C4687C
:104DD000201D00F0E5F92869401E2861E868401EA2
:104DE000E86000F043FA204600F008F8E868002880
:104DF000EAD170BD44000020980A002010B5044696
:104E0000206B00F049FA2046BDE8104000F044BA9B
:104E10004FF440610F48420706D0C01D20F0070044
:104E20000C49411AC1F540610B4A106000235360E0
:104E30000144083921F00701103A11604B600B6002
:104E40000B1A436001604068906050604FF0004072
:104E5000D0607047C00A002090000020074E4FF03D
:104E60008054074DFFF7ACFF30680128FAD92C6059
:104E7000BFF34F8FBFF36F8FF4E70000D00900201E
:104E800004ED00E02DE9F0478146DDE908570A9C72
:104E90009846521E206B00EB820020F00706700738
:104EA00007D0502080F31188BFF34F8FBFF36F8F6F
:104EB000FEE7002023180A5C83F834200A5C12B154
:104EC000401C1028F6D34FF0000A84F843A0072DA9
:104ED00000D30625E5626564C4F848A0201D00F0F3
:104EE0007DF904F1180000F079F92461C5F107009B
:104EF000A0616462C4F84CA084F850A042464946C0
:104F0000304600F0EFF82060002F00D03C60BDE894
:104F1000F087000070B50024124D04EB840005EB0F
:104F2000800000F050F9641C072CF6D30D488C303B
:104F300000F049F90B48A03000F045F90948B430B9
:104F400000F041F90748C83000F03DF90548DC3071
:104F500000F039F9034904488C3141601431816013
:104F600070BD0000D00900204400002030B5134976
:104F700000E011460A688242FBD34B685C18844209
:104F800003D140681844486008460D6844682318F7
:104F9000AB420DD1094B103B1B689A4206D05268B8
:104FA000224442600A681268026002E0036000E086
:104FB0000260814200D0086030BD000090000020F7
:104FC000074841680968002905D04168C968C9686F
:104FD0004968016370474FF0FF310163704700007B
:104FE0004400002009484068401C07D0502080F34E
:104FF0001188BFF34F8FBFF36F8FFEE7502080F310
:105000001188BFF34F8FBFF36F8FFEE7980000202A
:105010002DE9F0410546002600F0DAF9304F3868F6
:1050200008B9FFF7F5FEF86805424AD18DB1083599
:1050300068070ED005F00700C0F1080005446807B6
:1050400007D0502080F31188BFF34F8FBFF36F8FCD
:10505000FEE7B5B37868854233D821491031084658
:10506000046801E0214604466068A84202D2206834
:105070000028F7D13868844223D00E6808362068AB
:1050800008606068411B10290ED96019420707D0DB
:10509000502080F31188BFF34F8FBFF36F8FFEE76F
:1050A00041606560FFF762FF61687868401A786068
:1050B000BA68904200D2B860F8680143616000208D
:1050C000206000F0A7FA700707D0502080F3118805
:1050D000BFF34F8FBFF36F8FFEE73046BDE8F0811F
:1050E0008000002020384FF08073C36121F001015F
:1050F00081610249416140F820297047E54F00086D
:1051000000B5254B21F0004287B09A4203DC002213
:10511000134600922BE0214B9A4208D140B94FF040
:105120000100FFF7FBFCFFF7DAFC07B000BD03DB73
:10513000FFF7D2FC07B000BD02AAFFF7BFF910F0DD
:1051400003014FF001000DD0012914D002291AD01B
:105150000DF1080C9CE80F00FFF774FB07B081F01D
:10516000004100BD0DF1080C00909CE80F00FFF716
:105170003DFC07B000BD0DF1080C9CE80F00FFF7E7
:1051800061FB07B000BD0DF1080C00909CE80F001A
:10519000FFF72CFCE2E70000FB21E93F0000F07F75
:1051A0000169D0E901329A60D0E901235A604A6866
:1051B000824201D182684A60002202610868401E72
:1051C00008600868704700F1080141604FF0FF3245
:1051D0008260C160016100210160704700210161AE
:1051E000704730B50C68621C02D000F1080202E082
:1051F000026904E01A4653681D68A542FAD953684B
:105200004B6099608A60516008610168491C0160C7
:1052100030BD42684A6093688B60936859609160C2
:1052200008610168491C016070470000502080F34C
:105230001188BFF34F8FBFF36F8F0A494868401C36
:10524000486001280CD10848006810F0FF0F07D013
:10525000502080F31188BFF34F8FBFF36F8FFEE7AD
:10526000704700009800002004ED00E009494868FC
:10527000002806D0401E4860002801D180F3118824
:105280007047502080F31188BFF34F8FBFF36F8FAB
:10529000FEE700009800002070B5002827D00838ED
:1052A0000446134D6068E968084207D1502080F336
:1052B0001188BFF34F8FBFF36F8FFEE722683AB1BB
:1052C000502080F31188BFF34F8FBFF36F8FFEE73D
:1052D0008843606000F07CF8606869680844686032
:1052E0002046FFF743FEBDE8704000F093B970BD63
:1052F000800000204FF0E02000210161816105491C
:105300004FF47A720968B1FBF2F1491E416107213D
:10531000016170474000002010B502460020002ABD
:1053200012D00F48806B38B1502080F31188BFF342
:105330004F8FBFF36F8FFEE700F04AF80021104651
:10534000FFF7C2FC00F066F9002807D105494FF0CD
:1053500080500860BFF34F8FBFF36F8F10BD000008
:105360004400002004ED00E01CB515480024CDE900
:1053700000402346802213A1144800F0B5F801280C
:1053800009D0401C1AD1502080F31188BFF34F8FF1
:10539000BFF36F8FFEE7502080F31188BFF34F8F6C
:1053A000BFF36F8F06484FF0FF313438016301219E
:1053B000C1614461BDE81C4000F042B81CBD000062
:1053C0007800002049444C45000000005D4E000874
:1053D0000248816B491C8163704700004400002033
:1053E000154A906B002802D00120506270470020BF
:1053F00050629069B0FA80F0C0F11F000F4900EBD5
:10540000800051F8203073B101EB80004168496899
:10541000416000F10803994201D149684160406848
:10542000C06810607047502080F31188BFF34F8F21
:10543000BFF36F8FFEE7000044000020D00900207A
:105440001CB5264908780190FF2008700878009064
:105450009DF800009DF8002000F0F000904207D079
:10546000502080F31188BFF34F8FBFF36F8FFEE79B
:105470009DF800001A4B00F050001870072098604B
:1054800006E09868401E98609DF80000400000907B
:105490009DF800000006F4D49868032807D0502037
:1054A00080F31188BFF34F8FBFF36F8FFEE74FF488
:1054B00040709860019808700A48016841F47001D2
:1054C0000160016841F070410160FFF713FF0020A7
:1054D0005860FAF749FE00201CBD000000E400E01F
:1054E0009800002020ED00E02DE9FF5F8146DDE916
:1054F0000E788A4616469B46B000FFF789FD0546A2
:1055000028000AD05420FFF783FD04460CB1256320
:1055100004E02846FFF7C0FE00E000248CB1002024
:10552000CDE90240CDE900785B4632465146484617
:10553000FFF7A8FC2046FFF7FFFB012004B0BDE801
:10554000F09F4FF0FF30F9E72DE9F04100262F4F93
:10555000B86B002808D0386A401C3862786A00B1FD
:1055600001263046BDE8F0817D696D1C7D619DB9E5
:105570007868006838B1502080F31188BFF34F8FEE
:10558000BFF36F8FFEE77868B9687960B860B86A72
:10559000401CB862FFF714FD386BDFF87480854259
:1055A0000DD37868006838B17868C068C4686068EE
:1055B00085420ED2386302E04FF0FF30386338681E
:1055C000C06A00EB800058F820000128C6D90126E7
:1055D000C4E7201DFFF7E4FDA06A18B104F118002C
:1055E000FFF7DEFDE06A0121BA6981401143B9612C
:1055F00000EB800008EB8000211DFFF70AFEE06A47
:105600003968C96A8842CCD30126CAE74400002021
:10561000D00900202DE9F041002400272D4DA86B72
:10562000002807D0FFF702FEA86B401EA863A86BF6
:1056300040B14AE0502080F31188BFF34F8FBFF391
:105640006F8FFEE72869E8B3DFF88C8001261EE043
:10565000D8F80C00C46804F11800FFF7A1FD201D64
:10566000FFF79EFDE06AAA6906FA00F11143A961FD
:10567000194900EB8000B43901EB8000211DFFF7D0
:10568000C8FDE06A2968C96A884200D36E62D8F80A
:1056900000000028DCD10CB1FFF792FC2C6A44B169
:1056A000FFF752FF00B16E62641E002CF8D100209B
:1056B0002862686A30B10127084938070860BFF3DB
:1056C0004F8F00E001E0BFF36F8FFFF7CFFD38464B
:1056D000BDE8F08144000020840A002004ED00E0D1
:1056E0000000C1C081C1400101C3C003800241C2AA
:1056F00001C6C006800741C70005C1C581C440047A
:1057000001CCC00C800D41CD000FC1CF81CE400E29
:10571000000AC1CA81CB400B01C9C009800841C839
:1057200001D8C018801941D9001BC1DB81DA401AA9
:10573000001EC1DE81DF401F01DDC01D801C41DC79
:105740000014C1D481D5401501D7C017801641D6A9
:1057500001D2C012801341D30011C1D181D04010B9
:1057600001F0C030803141F10033C1F381F24032A9
:105770000036C1F681F7403701F5C035803441F479
:10578000003CC1FC81FD403D01FFC03F803E41FE29
:1057900001FAC03A803B41FB0039C1F981F8403839
:1057A0000028C1E881E9402901EBC02B802A41EAA9
:1057B00001EEC02E802F41EF002DC1ED81EC402C79
:1057C00001E4C024802541E50027C1E781E64026A9
:1057D0000022C1E281E3402301E1C021802041E0B9
:1057E00001A0C060806141A10063C1A381A24062A9
:1057F0000066C1A681A7406701A5C065806441A479
:10580000006CC1AC81AD406D01AFC06F806E41AE28
:1058100001AAC06A806B41AB0069C1A981A8406838
:105820000078C1B881B9407901BBC07B807A41BAA8
:1058300001BEC07E807F41BF007DC1BD81BC407C78
:1058400001B4C074807541B50077C1B781B64076A8
:105850000072C1B281B3407301B1C071807041B0B8
:105860000050C190819140510193C05380524192A8
:105870000196C056805741970055C1958194405478
:10588000019CC05C805D419D005FC19F819E405E28
:10589000005AC19A819B405B0199C0598058419838
:1058A0000188C04880494189004BC18B818A404AA8
:1058B000004EC18E818F404F018DC04D804C418C78
:1058C0000044C184818540450187C04780464186A8
:1058D0000182C042804341830041C18181804040B8
:1058E00000000000963007772C610EEEBA5109993E
:1058F00019C46D078FF46A7035A563E9A395649E9A
:105900003288DB0EA4B8DC791EE9D5E088D9D297BD
:105910002B4CB609BD7CB17E072DB8E7911DBF9019
:105920006410B71DF220B06A4871B9F3DE41BE843D
:105930007DD4DA1AEBE4DD6D51B5D4F4C785D38399
:1059400056986C13C0A86B647AF962FDECC9658A3D
:105950004F5C0114D96C0663633D0FFAF50D088D99
:10596000C8206E3B5E10694CE44160D5727167A23D
:10597000D1E4033C47D4044BFD850DD26BB50AA599
:10598000FAA8B5356C98B242D6C9BBDB40F9BCACBD
:10599000E36CD832755CDF45CF0DD6DC593DD1AB19
:1059A000AC30D9263A00DE518051D7C81661D0BF3D
:1059B000B5F4B42123C4B3569995BACF0FA5BDB899
:1059C0009EB802280888055FB2D90CC624E90BB13D
:1059D000877C6F2F114C6858AB1D61C13D2D66B699
:1059E0009041DC760671DB01BC20D2982A10D5EFFD
:1059F0008985B1711FB5B606A5E4BF9F33D4B8E859
:105A0000A2C9077834F9000F8EA8099618980EE1FC
:105A1000BB0D6A7F2D3D6D08976C6491015C63E658
:105A2000F4516B6B62616C1CD83065854E0062F27C
:105A3000ED95066C7BA5011BC1F4088257C40FF5D8
:105A4000C6D9B06550E9B712EAB8BE8B7C88B9FCFC
:105A5000DF1DDD62492DDA15F37CD38C654CD4FB58
:105A60005861B24DCE51B53A7400BCA3E230BBD4FC
:105A700041A5DF4AD795D83D6DC4D1A4FBF4D6D358
:105A80006AE96943FCD96E34468867ADD0B860DAFC
:105A9000732D0444E51D03335F4C0AAAC97C0DDD58
:105AA0003C710550AA41022710100BBE86200CC97C
:105AB00025B56857B3856F2009D466B99FE461CED8
:105AC0000EF9DE5E98C9D9292298D0B0B4A8D7C7FC
:105AD000173DB359810DB42E3B5CBDB7AD6CBAC058
